{
  "contractName": "BlockVotingDeployable",
  "abi": [
    {
      "constant": true,
      "inputs": [],
      "name": "voterCount",
      "outputs": [
        {
          "name": "",
          "type": "uint256"
        }
      ],
      "payable": false,
      "stateMutability": "view",
      "type": "function"
    },
    {
      "constant": true,
      "inputs": [
        {
          "name": "",
          "type": "address"
        }
      ],
      "name": "canCreateBlocks",
      "outputs": [
        {
          "name": "",
          "type": "bool"
        }
      ],
      "payable": false,
      "stateMutability": "view",
      "type": "function"
    },
    {
      "constant": true,
      "inputs": [],
      "name": "voteThreshold",
      "outputs": [
        {
          "name": "",
          "type": "uint256"
        }
      ],
      "payable": false,
      "stateMutability": "view",
      "type": "function"
    },
    {
      "constant": true,
      "inputs": [
        {
          "name": "",
          "type": "address"
        }
      ],
      "name": "canVote",
      "outputs": [
        {
          "name": "",
          "type": "bool"
        }
      ],
      "payable": false,
      "stateMutability": "view",
      "type": "function"
    },
    {
      "constant": true,
      "inputs": [],
      "name": "blockMakerCount",
      "outputs": [
        {
          "name": "",
          "type": "uint256"
        }
      ],
      "payable": false,
      "stateMutability": "view",
      "type": "function"
    },
    {
      "anonymous": false,
      "inputs": [
        {
          "indexed": true,
          "name": "sender",
          "type": "address"
        },
        {
          "indexed": false,
          "name": "blockNumber",
          "type": "uint256"
        },
        {
          "indexed": false,
          "name": "blockHash",
          "type": "bytes32"
        }
      ],
      "name": "Vote",
      "type": "event"
    },
    {
      "anonymous": false,
      "inputs": [
        {
          "indexed": false,
          "name": "",
          "type": "address"
        }
      ],
      "name": "AddVoter",
      "type": "event"
    },
    {
      "anonymous": false,
      "inputs": [
        {
          "indexed": false,
          "name": "",
          "type": "address"
        }
      ],
      "name": "RemovedVoter",
      "type": "event"
    },
    {
      "anonymous": false,
      "inputs": [
        {
          "indexed": false,
          "name": "",
          "type": "address"
        }
      ],
      "name": "AddBlockMaker",
      "type": "event"
    },
    {
      "anonymous": false,
      "inputs": [
        {
          "indexed": false,
          "name": "",
          "type": "address"
        }
      ],
      "name": "RemovedBlockMaker",
      "type": "event"
    },
    {
      "constant": false,
      "inputs": [
        {
          "name": "threshold",
          "type": "uint256"
        }
      ],
      "name": "setVoteThreshold",
      "outputs": [],
      "payable": false,
      "stateMutability": "nonpayable",
      "type": "function"
    },
    {
      "constant": false,
      "inputs": [
        {
          "name": "height",
          "type": "uint256"
        },
        {
          "name": "hash",
          "type": "bytes32"
        }
      ],
      "name": "vote",
      "outputs": [],
      "payable": false,
      "stateMutability": "nonpayable",
      "type": "function"
    },
    {
      "constant": true,
      "inputs": [
        {
          "name": "height",
          "type": "uint256"
        }
      ],
      "name": "getCanonHash",
      "outputs": [
        {
          "name": "",
          "type": "bytes32"
        }
      ],
      "payable": false,
      "stateMutability": "view",
      "type": "function"
    },
    {
      "constant": false,
      "inputs": [
        {
          "name": "addr",
          "type": "address"
        }
      ],
      "name": "addVoter",
      "outputs": [],
      "payable": false,
      "stateMutability": "nonpayable",
      "type": "function"
    },
    {
      "constant": false,
      "inputs": [
        {
          "name": "addr",
          "type": "address"
        }
      ],
      "name": "removeVoter",
      "outputs": [],
      "payable": false,
      "stateMutability": "nonpayable",
      "type": "function"
    },
    {
      "constant": true,
      "inputs": [
        {
          "name": "addr",
          "type": "address"
        }
      ],
      "name": "isVoter",
      "outputs": [
        {
          "name": "",
          "type": "bool"
        }
      ],
      "payable": false,
      "stateMutability": "view",
      "type": "function"
    },
    {
      "constant": false,
      "inputs": [
        {
          "name": "addr",
          "type": "address"
        }
      ],
      "name": "addBlockMaker",
      "outputs": [],
      "payable": false,
      "stateMutability": "nonpayable",
      "type": "function"
    },
    {
      "constant": false,
      "inputs": [
        {
          "name": "addr",
          "type": "address"
        }
      ],
      "name": "removeBlockMaker",
      "outputs": [],
      "payable": false,
      "stateMutability": "nonpayable",
      "type": "function"
    },
    {
      "constant": true,
      "inputs": [
        {
          "name": "addr",
          "type": "address"
        }
      ],
      "name": "isBlockMaker",
      "outputs": [
        {
          "name": "",
          "type": "bool"
        }
      ],
      "payable": false,
      "stateMutability": "view",
      "type": "function"
    },
    {
      "constant": true,
      "inputs": [],
      "name": "getSize",
      "outputs": [
        {
          "name": "",
          "type": "uint256"
        }
      ],
      "payable": false,
      "stateMutability": "view",
      "type": "function"
    },
    {
      "constant": true,
      "inputs": [
        {
          "name": "height",
          "type": "uint256"
        },
        {
          "name": "n",
          "type": "uint256"
        }
      ],
      "name": "getEntry",
      "outputs": [
        {
          "name": "",
          "type": "bytes32"
        }
      ],
      "payable": false,
      "stateMutability": "view",
      "type": "function"
    }
  ],
  "bytecode": "0x608060405234801561001057600080fd5b506108d5806100206000396000f3006080604052600436106100e55763ffffffff7c01000000000000000000000000000000000000000000000000000000006000350416631290948581146100ea578063284d163c1461010457806342169e4814610125578063488099a61461014c5780634fe437d514610181578063559c390c1461019657806368bb8bb6146101ae57806372a571fc146101c957806386c1ff68146101ea57806398ba676d1461020b578063a7771ee314610226578063adfaa72e14610247578063cf52898514610268578063de8fa4311461027d578063e814d1c714610292578063f4ab9adf146102b3575b600080fd5b3480156100f657600080fd5b506101026004356102d4565b005b34801561011057600080fd5b50610102600160a060020a03600435166102f7565b34801561013157600080fd5b5061013a610397565b60408051918252519081900360200190f35b34801561015857600080fd5b5061016d600160a060020a036004351661039d565b604080519115158252519081900360200190f35b34801561018d57600080fd5b5061013a6103b2565b3480156101a257600080fd5b5061013a6004356103b8565b3480156101ba57600080fd5b506101026004356024356104a2565b3480156101d557600080fd5b50610102600160a060020a0360043516610586565b3480156101f657600080fd5b50610102600160a060020a036004351661061c565b34801561021757600080fd5b5061013a6004356024356106cc565b34801561023257600080fd5b5061016d600160a060020a0360043516610716565b34801561025357600080fd5b5061016d600160a060020a0360043516610734565b34801561027457600080fd5b5061013a610749565b34801561028957600080fd5b5061013a61074f565b34801561029e57600080fd5b5061016d600160a060020a0360043516610756565b3480156102bf57600080fd5b50610102600160a060020a0360043516610774565b3360009081526003602052604090205460ff1615156102f257600080fd5b600155565b602a331461030457600080fd5b60045460011061031357600080fd5b600160a060020a03811660009081526005602052604090205460ff161561039457600160a060020a038116600081815260056020908152604091829020805460ff1916905560048054600019019055815192835290517f8cee3054364d6799f1c8962580ad61273d9d38ca1ff26516bd1ad23c099a60229281900390910190a15b50565b60025481565b60056020526000908152604090205460ff1681565b60015481565b6000806000806000600186038154811015156103d057fe5b90600052602060002090600202019250600090505b600183015481101561049a5760018301805484916000918490811061040657fe5b6000918252602080832090910154835282810193909352604091820181205485825292869052205410801561046f5750600154836000016000856001018481548110151561045057fe5b6000918252602080832090910154835282019290925260400190205410155b15610492576001830180548290811061048457fe5b906000526020600020015491505b6001016103e5565b509392505050565b3360009081526003602052604081205460ff1615156104c057600080fd5b6000548311156104df576000805480850301906104dd908261081b565b505b6000805460001985019081106104f157fe5b60009182526020808320858452600290920290910190819052604090912054909150151561053357600180820180549182018155600090815260209020018290555b60008281526020828152604091829020805460010190558151438152908101849052815133927f3d03ba7f4b5227cdb385f2610906e5bcee147171603ec40005b30915ad20e258928290030190a2505050565b602a331461059357600080fd5b600160a060020a03811660009081526005602052604090205460ff16151561039457600160a060020a038116600081815260056020908152604091829020805460ff19166001908117909155600480549091019055815192835290517f1a4ce6942f7aa91856332e618fc90159f13a340611a308f5d7327ba0707e56859281900390910190a150565b3360009081526003602052604090205460ff16151561063a57600080fd5b60025460011061064957600080fd5b600160a060020a03811660009081526003602052604090205460ff161561039457600160a060020a038116600081815260036020908152604091829020805460ff1916905560028054600019019055815192835290517f183393fc5cffbfc7d03d623966b85f76b9430f42d3aada2ac3f3deabc78899e89281900390910190a150565b6000806000600185038154811015156106e157fe5b90600052602060002090600202019050806001018381548110151561070257fe5b906000526020600020015491505092915050565b600160a060020a031660009081526003602052604090205460ff1690565b60036020526000908152604090205460ff1681565b60045481565b6000545b90565b600160a060020a031660009081526005602052604090205460ff1690565b3360009081526003602052604090205460ff16151561079257600080fd5b600160a060020a03811660009081526003602052604090205460ff16151561039457600160a060020a038116600081815260036020908152604091829020805460ff19166001908117909155600280549091019055815192835290517f0ad2eca75347acd5160276fe4b5dad46987e4ff4af9e574195e3e9bc15d7e0ff9281900390910190a150565b81548183558181111561084757600202816002028360005260206000209182019101610847919061084c565b505050565b61075391905b808211156108725760006108696001830182610876565b50600201610852565b5090565b5080546000825590600052602060002090810190610394919061075391905b8082111561087257600081556001016108955600a165627a7a723058206ce30f44ba9dfb59248a7844333f1308eff03bdb8dae66b76f93217505e848cd0029",
  "source": "pragma solidity ^0.4.10;\n // Implements a block voting algorithm to reach consensus.\n//\n// To vote for a block the sender must be allowed to vote. When deployed the\n// deployer is the only party that is allowed to vote and can add new voters.\n// Note that voters can add new voters and thus have the abbility to add multiple\n// voter accounts that they control. This gives them the possibility to vote\n// multiple times for a particular block. Therefore voters must be trusted.\ncontract BlockVotingDeployable {\n    // Raised when a vote is made\n    event Vote(address indexed sender, uint blockNumber, bytes32 blockHash);\n    // Raised when a new address is allowed to vote.\n    event AddVoter(address);\n    // Raised when an address is not allowed to make votes anymore.\n\tevent RemovedVoter(address);\n\t// Raised when a new address is allowed to create new blocks.\n\tevent AddBlockMaker(address);\n\t// Raised when an address is not allowed to make blocks anymore.\n\tevent RemovedBlockMaker(address);\n     // The period in which voters can vote for a block that is selected\n    // as the new head of the chain.\n\tstruct Period {\n\t    // number of times a block is voted for\n\t\tmapping(bytes32 => uint) entries;\n \t\t// blocks up for voting\n\t\tbytes32[] indices;\n\t}\n     // Collection of vote rounds.\n\tPeriod[] periods;\n     // Canonical hash must have at least voteThreshold votes before its considered valid.\n\tuint public voteThreshold;\n     // Number of addresses that are allowed to make votes.\n    uint public voterCount;\n     // Collection of addresses that are allowed to vote.\n    mapping(address => bool) public canVote;\n     // Number of addresses that are allowed to create blocks.\n    uint public blockMakerCount;\n     // Collection of addresses that are allowed to create blocks.\n    mapping(address => bool) public canCreateBlocks;\n     // Only allow addresses that are allowed to make votes.\n\tmodifier mustBeVoter() {\n        require(canVote[msg.sender]);\n        _;\n\t}\n \t// Only allow addresses that are allowed to create blocks.\n    modifier mustBeGovernance() {\n        require(msg.sender == 0x000000000000000000000000000000000000002A);\n        _;\n    }\n\n     // Set a new vote threshold. The canonical hash must have at least the given\n    // threshold number of votes before it's considered valid.\n\tfunction setVoteThreshold(uint threshold) public mustBeVoter {\n\t    voteThreshold = threshold;\n\t}\n     // Make a vote to select a particular block as head for the previous head.\n    // Only senders that are added through the addVoter are allowed to make a vote.\n    // TODO: discuss if we only allow 1 vote per voter\n    // (this can deadlock the system if all voters votes for something different\n    // (nVotes < threshold) and cannot vote anymore, or gas limit is reached).\n\tfunction vote(uint height, bytes32 hash) public mustBeVoter {\n\t    // start new period if this is the first transaction in the new block.\n\t\tif (periods.length < height) {\n\t\t    periods.length += height-periods.length;\n\t\t}\n \t\t// select the voting round.\n\t\tPeriod storage period = periods[height-1];\n \t\t// new block hash entry\n\t\tif(period.entries[hash] == 0) period.indices.push(hash);\n \t\t// vote\n\t\tperiod.entries[hash]++;\n \t\t// log vote\n\t\temit Vote(msg.sender, block.number, hash);\n\t}\n     // Get canonical head for a given block number.\n    // E.g. [block 124] - [block 125] - [block 126 (pending)]\n    // getCanonHash(126) will return the hash of block 125\n    // (if there are enough votes for it).\n\tfunction getCanonHash(uint height) public constant returns(bytes32) {\n\t\tPeriod storage period = periods[height-1];\n \t\tbytes32 best;\n\t\tfor(uint i = 0; i < period.indices.length; i++) {\n\t\t\tif(period.entries[best] < period.entries[period.indices[i]]\n\t\t\t&& period.entries[period.indices[i]] >= voteThreshold) {\n\t\t\t\tbest = period.indices[i];\n\t\t\t}\n\t\t}\n\t\treturn best;\n\t}\n \t// Add a party that is allowed to make a vote.\n\t// Only current voters are allowed to add a new voter.\n\tfunction addVoter(address addr) public mustBeVoter {\n\t\tif (!canVote[addr]) {\n\t\t    canVote[addr] = true;\n\t\t    voterCount++;\n\t\t    emit AddVoter(addr);\n\t\t}\n\t}\n \t// Remove a party that is allowed to vote.\n\t// Note, a voter can remove itself as a voter!\n\tfunction removeVoter(address addr) public mustBeVoter {\n\t    // don't let the last voter remove itself\n\t    // which can cause the algorithm to stall.\n        require(voterCount > 1);\n        if (canVote[addr]) {\n\t        delete canVote[addr];\n\t        voterCount--;\n\t        emit RemovedVoter(addr);\n        }\n\t}\n \t// isVoter returns an indication if the given address is allowed to vote.\n\tfunction isVoter(address addr) public constant returns (bool) {\n\t    return canVote[addr];\n\t}\n     // addBlockMaker adds the given list to the collection of addresses that\n    // are allowed to create blocks.\n\tfunction addBlockMaker(address addr) public mustBeGovernance {\n        if (!canCreateBlocks[addr]) {\n            canCreateBlocks[addr] = true;\n            blockMakerCount++;\n            emit AddBlockMaker(addr);\n        }\n\t}\n \t// removeBlocksMaker deletes the given address from the collection of\n\t// addresses that are allowed to create blocks.\n\tfunction removeBlockMaker(address addr) public mustBeGovernance {\n\t\trequire(blockMakerCount > 1);\n \t    if (canCreateBlocks[addr]) {\n\t        delete canCreateBlocks[addr];\n\t        blockMakerCount--;\n\t        emit RemovedBlockMaker(addr);\n\t    }\n\t}\n     // isBlockMaker returns an indication if the given address can create blocks.\n\tfunction isBlockMaker(address addr) public constant returns (bool) {\n\t    return canCreateBlocks[addr];\n\t}\n     // Number of voting rounds.\n\tfunction getSize() public constant returns(uint) {\n\t\treturn periods.length;\n\t}\n     // Return a blockhash by period and index.\n\tfunction getEntry(uint height, uint n) public constant returns(bytes32) {\n\t\tPeriod storage period = periods[height-1];\n\t\treturn period.indices[n];\n\t}\n}",
  "sourcePath": "/Users/sully/sol/eximchain-governance-mechanism/contracts/BlockVotingDeployable.sol",
  "compiler": {
    "name": "solc",
    "version": "0.4.24+commit.e67f0147.Emscripten.clang"
  },
  "schemaVersion": "2.0.1",
  "updatedAt": "2018-12-14T19:45:07.305Z"
}