{
  "contractName": "WeylGovDeployable",
  "abi": [
    {
      "constant": false,
      "inputs": [
        {
          "name": "_withdrawIndex",
          "type": "uint256"
        }
      ],
      "name": "finalizeWithdraw",
      "outputs": [
        {
          "name": "success",
          "type": "bool"
        }
      ],
      "payable": false,
      "stateMutability": "nonpayable",
      "type": "function"
    },
    {
      "constant": true,
      "inputs": [
        {
          "name": "registrant",
          "type": "address"
        }
      ],
      "name": "hasApplied",
      "outputs": [
        {
          "name": "",
          "type": "bool"
        }
      ],
      "payable": false,
      "stateMutability": "view",
      "type": "function"
    },
    {
      "constant": false,
      "inputs": [
        {
          "name": "registrant",
          "type": "address"
        }
      ],
      "name": "approveKYC",
      "outputs": [],
      "payable": false,
      "stateMutability": "nonpayable",
      "type": "function"
    },
    {
      "constant": true,
      "inputs": [],
      "name": "GovernanceCycleDelayCeiling",
      "outputs": [
        {
          "name": "",
          "type": "uint256"
        }
      ],
      "payable": false,
      "stateMutability": "view",
      "type": "function"
    },
    {
      "constant": false,
      "inputs": [
        {
          "name": "removedOwner",
          "type": "address"
        }
      ],
      "name": "removeOwner",
      "outputs": [],
      "payable": false,
      "stateMutability": "nonpayable",
      "type": "function"
    },
    {
      "constant": true,
      "inputs": [
        {
          "name": "",
          "type": "address"
        },
        {
          "name": "",
          "type": "uint256"
        }
      ],
      "name": "withdrawHistory",
      "outputs": [
        {
          "name": "",
          "type": "uint256"
        }
      ],
      "payable": false,
      "stateMutability": "view",
      "type": "function"
    },
    {
      "constant": true,
      "inputs": [
        {
          "name": "registrant",
          "type": "address"
        }
      ],
      "name": "isKYCPending",
      "outputs": [
        {
          "name": "",
          "type": "bool"
        }
      ],
      "payable": false,
      "stateMutability": "view",
      "type": "function"
    },
    {
      "constant": false,
      "inputs": [
        {
          "name": "registrant",
          "type": "address"
        }
      ],
      "name": "registerGoverning",
      "outputs": [],
      "payable": false,
      "stateMutability": "nonpayable",
      "type": "function"
    },
    {
      "constant": true,
      "inputs": [
        {
          "name": "registrant",
          "type": "address"
        }
      ],
      "name": "isKYCDenied",
      "outputs": [
        {
          "name": "",
          "type": "bool"
        }
      ],
      "payable": false,
      "stateMutability": "view",
      "type": "function"
    },
    {
      "constant": false,
      "inputs": [],
      "name": "newGovernanceCycle",
      "outputs": [],
      "payable": false,
      "stateMutability": "nonpayable",
      "type": "function"
    },
    {
      "constant": false,
      "inputs": [
        {
          "name": "_voted_for",
          "type": "address"
        },
        {
          "name": "_election",
          "type": "bool"
        },
        {
          "name": "_inSupport",
          "type": "bool"
        },
        {
          "name": "_votes",
          "type": "uint16"
        }
      ],
      "name": "vote",
      "outputs": [
        {
          "name": "index",
          "type": "uint256"
        }
      ],
      "payable": true,
      "stateMutability": "payable",
      "type": "function"
    },
    {
      "constant": true,
      "inputs": [
        {
          "name": "maybeOwner",
          "type": "address"
        }
      ],
      "name": "isOwner",
      "outputs": [
        {
          "name": "",
          "type": "bool"
        }
      ],
      "payable": false,
      "stateMutability": "view",
      "type": "function"
    },
    {
      "constant": false,
      "inputs": [
        {
          "name": "_governanceCycleId",
          "type": "uint256"
        },
        {
          "name": "_ballotId",
          "type": "uint256"
        }
      ],
      "name": "startWithdraw",
      "outputs": [
        {
          "name": "ok",
          "type": "bool"
        },
        {
          "name": "index",
          "type": "uint256"
        }
      ],
      "payable": false,
      "stateMutability": "nonpayable",
      "type": "function"
    },
    {
      "constant": false,
      "inputs": [],
      "name": "appealKYC",
      "outputs": [],
      "payable": false,
      "stateMutability": "nonpayable",
      "type": "function"
    },
    {
      "constant": false,
      "inputs": [
        {
          "name": "registrant",
          "type": "address"
        }
      ],
      "name": "revokeKYC",
      "outputs": [],
      "payable": false,
      "stateMutability": "nonpayable",
      "type": "function"
    },
    {
      "constant": false,
      "inputs": [
        {
          "name": "delayInSeconds",
          "type": "uint256"
        }
      ],
      "name": "setGovernanceCycleDelay",
      "outputs": [],
      "payable": false,
      "stateMutability": "nonpayable",
      "type": "function"
    },
    {
      "constant": false,
      "inputs": [
        {
          "name": "newRegistry",
          "type": "address"
        }
      ],
      "name": "updatePersonalRegistry",
      "outputs": [],
      "payable": false,
      "stateMutability": "nonpayable",
      "type": "function"
    },
    {
      "constant": true,
      "inputs": [
        {
          "name": "",
          "type": "address"
        }
      ],
      "name": "nomineeBallots",
      "outputs": [
        {
          "name": "governanceCycleId",
          "type": "uint256"
        },
        {
          "name": "election",
          "type": "bool"
        },
        {
          "name": "votes",
          "type": "int24"
        },
        {
          "name": "positiveVotes",
          "type": "uint24"
        },
        {
          "name": "negativeVotes",
          "type": "uint24"
        },
        {
          "name": "totalVoters",
          "type": "uint24"
        }
      ],
      "payable": false,
      "stateMutability": "view",
      "type": "function"
    },
    {
      "constant": false,
      "inputs": [
        {
          "name": "registrant",
          "type": "address"
        }
      ],
      "name": "revokeGoverning",
      "outputs": [],
      "payable": false,
      "stateMutability": "nonpayable",
      "type": "function"
    },
    {
      "constant": false,
      "inputs": [
        {
          "name": "registrant",
          "type": "address"
        }
      ],
      "name": "registerNonGoverning",
      "outputs": [],
      "payable": false,
      "stateMutability": "nonpayable",
      "type": "function"
    },
    {
      "constant": false,
      "inputs": [
        {
          "name": "registrant",
          "type": "address"
        }
      ],
      "name": "approveGoverning",
      "outputs": [],
      "payable": false,
      "stateMutability": "nonpayable",
      "type": "function"
    },
    {
      "constant": true,
      "inputs": [
        {
          "name": "registrant",
          "type": "address"
        }
      ],
      "name": "canGovern",
      "outputs": [
        {
          "name": "",
          "type": "bool"
        }
      ],
      "payable": false,
      "stateMutability": "view",
      "type": "function"
    },
    {
      "constant": false,
      "inputs": [
        {
          "name": "maxNominees",
          "type": "uint16"
        }
      ],
      "name": "setMaxNomineesInCycle",
      "outputs": [],
      "payable": false,
      "stateMutability": "nonpayable",
      "type": "function"
    },
    {
      "constant": true,
      "inputs": [],
      "name": "AverageMonth",
      "outputs": [
        {
          "name": "",
          "type": "uint256"
        }
      ],
      "payable": false,
      "stateMutability": "view",
      "type": "function"
    },
    {
      "constant": false,
      "inputs": [
        {
          "name": "registrant",
          "type": "address"
        }
      ],
      "name": "deleteKYC",
      "outputs": [],
      "payable": false,
      "stateMutability": "nonpayable",
      "type": "function"
    },
    {
      "constant": true,
      "inputs": [],
      "name": "MaxNomineesInCycleCeiling",
      "outputs": [
        {
          "name": "",
          "type": "uint16"
        }
      ],
      "payable": false,
      "stateMutability": "view",
      "type": "function"
    },
    {
      "constant": true,
      "inputs": [
        {
          "name": "",
          "type": "uint256"
        }
      ],
      "name": "governanceCycleRecords",
      "outputs": [
        {
          "name": "totalPayments",
          "type": "uint32"
        },
        {
          "name": "status",
          "type": "uint8"
        },
        {
          "name": "electionVotesElected",
          "type": "int24"
        },
        {
          "name": "evictionVotesEvicted",
          "type": "int24"
        },
        {
          "name": "totalVoters",
          "type": "uint24"
        },
        {
          "name": "elected",
          "type": "address"
        },
        {
          "name": "evicted",
          "type": "address"
        },
        {
          "name": "start",
          "type": "uint256"
        }
      ],
      "payable": false,
      "stateMutability": "view",
      "type": "function"
    },
    {
      "constant": true,
      "inputs": [],
      "name": "findWinners",
      "outputs": [
        {
          "name": "",
          "type": "address"
        },
        {
          "name": "",
          "type": "int24"
        },
        {
          "name": "",
          "type": "address"
        },
        {
          "name": "",
          "type": "int24"
        }
      ],
      "payable": false,
      "stateMutability": "view",
      "type": "function"
    },
    {
      "constant": true,
      "inputs": [],
      "name": "NominationFee",
      "outputs": [
        {
          "name": "",
          "type": "uint256"
        }
      ],
      "payable": false,
      "stateMutability": "view",
      "type": "function"
    },
    {
      "constant": true,
      "inputs": [
        {
          "name": "",
          "type": "uint256"
        }
      ],
      "name": "ballotRecords",
      "outputs": [
        {
          "name": "governanceCycleId",
          "type": "uint256"
        },
        {
          "name": "voter",
          "type": "address"
        },
        {
          "name": "voted_for",
          "type": "address"
        },
        {
          "name": "withdrawRecordId",
          "type": "uint256"
        },
        {
          "name": "timestamp",
          "type": "uint256"
        },
        {
          "name": "amount",
          "type": "uint32"
        },
        {
          "name": "votes",
          "type": "uint16"
        },
        {
          "name": "election",
          "type": "bool"
        },
        {
          "name": "inSupport",
          "type": "bool"
        },
        {
          "name": "withdrawRecord",
          "type": "bool"
        }
      ],
      "payable": false,
      "stateMutability": "view",
      "type": "function"
    },
    {
      "constant": false,
      "inputs": [
        {
          "name": "newOwner",
          "type": "address"
        }
      ],
      "name": "addOwner",
      "outputs": [],
      "payable": false,
      "stateMutability": "nonpayable",
      "type": "function"
    },
    {
      "constant": true,
      "inputs": [],
      "name": "nomineesInCycle",
      "outputs": [
        {
          "name": "",
          "type": "uint16"
        }
      ],
      "payable": false,
      "stateMutability": "view",
      "type": "function"
    },
    {
      "constant": false,
      "inputs": [],
      "name": "finalizeGovernanceCycle",
      "outputs": [],
      "payable": false,
      "stateMutability": "nonpayable",
      "type": "function"
    },
    {
      "constant": true,
      "inputs": [
        {
          "name": "registrant",
          "type": "address"
        }
      ],
      "name": "getRegistration",
      "outputs": [
        {
          "name": "",
          "type": "uint8"
        },
        {
          "name": "",
          "type": "address"
        }
      ],
      "payable": false,
      "stateMutability": "view",
      "type": "function"
    },
    {
      "constant": false,
      "inputs": [
        {
          "name": "delayInSeconds",
          "type": "uint256"
        }
      ],
      "name": "setWithdrawDelay",
      "outputs": [],
      "payable": false,
      "stateMutability": "nonpayable",
      "type": "function"
    },
    {
      "constant": true,
      "inputs": [],
      "name": "currentGovernanceCycle",
      "outputs": [
        {
          "name": "",
          "type": "uint256"
        }
      ],
      "payable": false,
      "stateMutability": "view",
      "type": "function"
    },
    {
      "constant": true,
      "inputs": [],
      "name": "numOwners",
      "outputs": [
        {
          "name": "",
          "type": "uint256"
        }
      ],
      "payable": false,
      "stateMutability": "view",
      "type": "function"
    },
    {
      "constant": true,
      "inputs": [
        {
          "name": "",
          "type": "uint256"
        }
      ],
      "name": "withdrawRecords",
      "outputs": [
        {
          "name": "amount",
          "type": "uint32"
        },
        {
          "name": "status",
          "type": "uint8"
        },
        {
          "name": "governanceCycleId",
          "type": "uint256"
        },
        {
          "name": "beneficiary",
          "type": "address"
        },
        {
          "name": "ballotId",
          "type": "uint256"
        },
        {
          "name": "timestamp",
          "type": "uint256"
        }
      ],
      "payable": false,
      "stateMutability": "view",
      "type": "function"
    },
    {
      "constant": true,
      "inputs": [
        {
          "name": "",
          "type": "address"
        },
        {
          "name": "",
          "type": "uint256"
        }
      ],
      "name": "ballotHistory",
      "outputs": [
        {
          "name": "",
          "type": "uint256"
        }
      ],
      "payable": false,
      "stateMutability": "view",
      "type": "function"
    },
    {
      "constant": true,
      "inputs": [],
      "name": "WithdrawDelayFloor",
      "outputs": [
        {
          "name": "",
          "type": "uint256"
        }
      ],
      "payable": false,
      "stateMutability": "view",
      "type": "function"
    },
    {
      "constant": false,
      "inputs": [],
      "name": "applyKYC",
      "outputs": [],
      "payable": false,
      "stateMutability": "nonpayable",
      "type": "function"
    },
    {
      "constant": true,
      "inputs": [
        {
          "name": "",
          "type": "address"
        }
      ],
      "name": "latestGovernanceCycleParticipated",
      "outputs": [
        {
          "name": "",
          "type": "uint256"
        }
      ],
      "payable": false,
      "stateMutability": "view",
      "type": "function"
    },
    {
      "constant": true,
      "inputs": [],
      "name": "NominationFeeCeiling",
      "outputs": [
        {
          "name": "",
          "type": "uint256"
        }
      ],
      "payable": false,
      "stateMutability": "view",
      "type": "function"
    },
    {
      "constant": true,
      "inputs": [],
      "name": "WithdrawDelayCeiling",
      "outputs": [
        {
          "name": "",
          "type": "uint256"
        }
      ],
      "payable": false,
      "stateMutability": "view",
      "type": "function"
    },
    {
      "constant": true,
      "inputs": [],
      "name": "MaxNomineesInCycle",
      "outputs": [
        {
          "name": "",
          "type": "uint16"
        }
      ],
      "payable": false,
      "stateMutability": "view",
      "type": "function"
    },
    {
      "constant": false,
      "inputs": [
        {
          "name": "registrant",
          "type": "address"
        }
      ],
      "name": "denyKYC",
      "outputs": [],
      "payable": false,
      "stateMutability": "nonpayable",
      "type": "function"
    },
    {
      "constant": true,
      "inputs": [],
      "name": "WithdrawDelay",
      "outputs": [
        {
          "name": "",
          "type": "uint256"
        }
      ],
      "payable": false,
      "stateMutability": "view",
      "type": "function"
    },
    {
      "constant": true,
      "inputs": [],
      "name": "MaxNomineesInCycleFloor",
      "outputs": [
        {
          "name": "",
          "type": "uint16"
        }
      ],
      "payable": false,
      "stateMutability": "view",
      "type": "function"
    },
    {
      "constant": true,
      "inputs": [],
      "name": "numRegistered",
      "outputs": [
        {
          "name": "",
          "type": "uint256"
        }
      ],
      "payable": false,
      "stateMutability": "view",
      "type": "function"
    },
    {
      "constant": false,
      "inputs": [
        {
          "name": "feeInEXC",
          "type": "uint256"
        }
      ],
      "name": "setNominationFee",
      "outputs": [],
      "payable": false,
      "stateMutability": "nonpayable",
      "type": "function"
    },
    {
      "constant": true,
      "inputs": [],
      "name": "ballotIndex",
      "outputs": [
        {
          "name": "",
          "type": "uint256"
        }
      ],
      "payable": false,
      "stateMutability": "view",
      "type": "function"
    },
    {
      "constant": true,
      "inputs": [
        {
          "name": "",
          "type": "uint256"
        }
      ],
      "name": "nomineeBallotKeys",
      "outputs": [
        {
          "name": "",
          "type": "address"
        }
      ],
      "payable": false,
      "stateMutability": "view",
      "type": "function"
    },
    {
      "constant": true,
      "inputs": [],
      "name": "electionNomineesInCycle",
      "outputs": [
        {
          "name": "",
          "type": "uint16"
        }
      ],
      "payable": false,
      "stateMutability": "view",
      "type": "function"
    },
    {
      "constant": true,
      "inputs": [],
      "name": "evictionNomineesInCycle",
      "outputs": [
        {
          "name": "",
          "type": "uint16"
        }
      ],
      "payable": false,
      "stateMutability": "view",
      "type": "function"
    },
    {
      "constant": true,
      "inputs": [],
      "name": "withdrawRecordsIndex",
      "outputs": [
        {
          "name": "",
          "type": "uint256"
        }
      ],
      "payable": false,
      "stateMutability": "view",
      "type": "function"
    },
    {
      "constant": true,
      "inputs": [],
      "name": "GovernanceCycleDelayFloor",
      "outputs": [
        {
          "name": "",
          "type": "uint256"
        }
      ],
      "payable": false,
      "stateMutability": "view",
      "type": "function"
    },
    {
      "constant": false,
      "inputs": [
        {
          "name": "registrant",
          "type": "address"
        }
      ],
      "name": "processKYC",
      "outputs": [],
      "payable": false,
      "stateMutability": "nonpayable",
      "type": "function"
    },
    {
      "constant": true,
      "inputs": [
        {
          "name": "registrant",
          "type": "address"
        }
      ],
      "name": "isKYCApproved",
      "outputs": [
        {
          "name": "",
          "type": "bool"
        }
      ],
      "payable": false,
      "stateMutability": "view",
      "type": "function"
    },
    {
      "constant": true,
      "inputs": [],
      "name": "NominationFeeFloor",
      "outputs": [
        {
          "name": "",
          "type": "uint256"
        }
      ],
      "payable": false,
      "stateMutability": "view",
      "type": "function"
    },
    {
      "constant": true,
      "inputs": [],
      "name": "GovernanceCycleDelay",
      "outputs": [
        {
          "name": "",
          "type": "uint256"
        }
      ],
      "payable": false,
      "stateMutability": "view",
      "type": "function"
    },
    {
      "anonymous": false,
      "inputs": [
        {
          "indexed": true,
          "name": "approvingOwner",
          "type": "address"
        },
        {
          "indexed": true,
          "name": "newOwner",
          "type": "address"
        }
      ],
      "name": "OwnerAdded",
      "type": "event"
    },
    {
      "anonymous": false,
      "inputs": [
        {
          "indexed": true,
          "name": "removingOwner",
          "type": "address"
        },
        {
          "indexed": true,
          "name": "removedOwner",
          "type": "address"
        }
      ],
      "name": "OwnerRemoved",
      "type": "event"
    },
    {
      "anonymous": false,
      "inputs": [
        {
          "indexed": true,
          "name": "updatingEntry",
          "type": "address"
        },
        {
          "indexed": true,
          "name": "newRegistry",
          "type": "address"
        }
      ],
      "name": "UpdatedPersonalRegistry",
      "type": "event"
    },
    {
      "anonymous": false,
      "inputs": [
        {
          "indexed": true,
          "name": "newEntry",
          "type": "address"
        }
      ],
      "name": "AppliedKYC",
      "type": "event"
    },
    {
      "anonymous": false,
      "inputs": [
        {
          "indexed": true,
          "name": "removingOwner",
          "type": "address"
        },
        {
          "indexed": true,
          "name": "removedEntry",
          "type": "address"
        },
        {
          "indexed": false,
          "name": "finalKYC",
          "type": "uint8"
        },
        {
          "indexed": false,
          "name": "finalPersonalRegistry",
          "type": "address"
        }
      ],
      "name": "DeletedKYC",
      "type": "event"
    },
    {
      "anonymous": false,
      "inputs": [
        {
          "indexed": true,
          "name": "approvingOwner",
          "type": "address"
        },
        {
          "indexed": true,
          "name": "pendingEntry",
          "type": "address"
        }
      ],
      "name": "ProcessedKYC",
      "type": "event"
    },
    {
      "anonymous": false,
      "inputs": [
        {
          "indexed": true,
          "name": "approvingOwner",
          "type": "address"
        },
        {
          "indexed": true,
          "name": "approvedEntry",
          "type": "address"
        }
      ],
      "name": "ApprovedKYC",
      "type": "event"
    },
    {
      "anonymous": false,
      "inputs": [
        {
          "indexed": true,
          "name": "revertingOwner",
          "type": "address"
        },
        {
          "indexed": true,
          "name": "entry",
          "type": "address"
        }
      ],
      "name": "RevokedKYC",
      "type": "event"
    },
    {
      "anonymous": false,
      "inputs": [
        {
          "indexed": true,
          "name": "denyingOwner",
          "type": "address"
        },
        {
          "indexed": true,
          "name": "deniedEntry",
          "type": "address"
        }
      ],
      "name": "DeniedKYC",
      "type": "event"
    },
    {
      "anonymous": false,
      "inputs": [
        {
          "indexed": true,
          "name": "appealingRegistrant",
          "type": "address"
        }
      ],
      "name": "AppealedKYC",
      "type": "event"
    },
    {
      "anonymous": false,
      "inputs": [
        {
          "indexed": true,
          "name": "approvingOwner",
          "type": "address"
        },
        {
          "indexed": true,
          "name": "voter",
          "type": "address"
        }
      ],
      "name": "ApprovedGoverning",
      "type": "event"
    },
    {
      "anonymous": false,
      "inputs": [
        {
          "indexed": true,
          "name": "revokingOwner",
          "type": "address"
        },
        {
          "indexed": true,
          "name": "nonvoter",
          "type": "address"
        }
      ],
      "name": "RevokedGoverning",
      "type": "event"
    },
    {
      "anonymous": false,
      "inputs": [
        {
          "indexed": true,
          "name": "registeringOwner",
          "type": "address"
        },
        {
          "indexed": true,
          "name": "voter",
          "type": "address"
        }
      ],
      "name": "RegisteredGoverning",
      "type": "event"
    },
    {
      "anonymous": false,
      "inputs": [
        {
          "indexed": true,
          "name": "registeringOwner",
          "type": "address"
        },
        {
          "indexed": true,
          "name": "nonvoter",
          "type": "address"
        }
      ],
      "name": "RegisteredNonGoverning",
      "type": "event"
    },
    {
      "anonymous": false,
      "inputs": [
        {
          "indexed": false,
          "name": "_delayInSeconds",
          "type": "uint256"
        }
      ],
      "name": "GovernanceCycleDelayUpdated",
      "type": "event"
    },
    {
      "anonymous": false,
      "inputs": [
        {
          "indexed": false,
          "name": "cycleId",
          "type": "uint256"
        }
      ],
      "name": "CycleStarted",
      "type": "event"
    },
    {
      "anonymous": false,
      "inputs": [
        {
          "indexed": false,
          "name": "cycleId",
          "type": "uint256"
        }
      ],
      "name": "CycleFinalized",
      "type": "event"
    },
    {
      "anonymous": false,
      "inputs": [
        {
          "indexed": false,
          "name": "newMaker",
          "type": "address"
        },
        {
          "indexed": false,
          "name": "cycleId",
          "type": "uint256"
        }
      ],
      "name": "AddedBlockMaker",
      "type": "event"
    },
    {
      "anonymous": false,
      "inputs": [
        {
          "indexed": false,
          "name": "oldMaker",
          "type": "address"
        },
        {
          "indexed": false,
          "name": "cycleId",
          "type": "uint256"
        }
      ],
      "name": "RemovedBlockMaker",
      "type": "event"
    },
    {
      "anonymous": false,
      "inputs": [
        {
          "indexed": false,
          "name": "_newFee",
          "type": "uint256"
        }
      ],
      "name": "NominationFeeUpdated",
      "type": "event"
    },
    {
      "anonymous": false,
      "inputs": [
        {
          "indexed": false,
          "name": "_newMaxNominees",
          "type": "uint16"
        }
      ],
      "name": "MaxNomineesInCycleUpdated",
      "type": "event"
    },
    {
      "anonymous": false,
      "inputs": [
        {
          "indexed": false,
          "name": "_voter",
          "type": "address"
        },
        {
          "indexed": false,
          "name": "_ballotIndex",
          "type": "uint256"
        },
        {
          "indexed": false,
          "name": "_voted_for",
          "type": "address"
        },
        {
          "indexed": false,
          "name": "_election",
          "type": "bool"
        },
        {
          "indexed": false,
          "name": "_inSupport",
          "type": "bool"
        },
        {
          "indexed": false,
          "name": "_votes",
          "type": "uint16"
        }
      ],
      "name": "Voted",
      "type": "event"
    },
    {
      "anonymous": false,
      "inputs": [
        {
          "indexed": false,
          "name": "_withdrawIndex",
          "type": "uint256"
        },
        {
          "indexed": false,
          "name": "_voter",
          "type": "address"
        },
        {
          "indexed": false,
          "name": "_governanceCycleId",
          "type": "uint256"
        },
        {
          "indexed": false,
          "name": "_ballotId",
          "type": "uint256"
        }
      ],
      "name": "WithdrawStartedEvent",
      "type": "event"
    },
    {
      "anonymous": false,
      "inputs": [
        {
          "indexed": false,
          "name": "_withdrawIndex",
          "type": "uint256"
        },
        {
          "indexed": false,
          "name": "_voter",
          "type": "address"
        },
        {
          "indexed": false,
          "name": "_governanceCycleId",
          "type": "uint256"
        },
        {
          "indexed": false,
          "name": "_ballotId",
          "type": "uint256"
        }
      ],
      "name": "WithdrawFinalizedEvent",
      "type": "event"
    },
    {
      "anonymous": false,
      "inputs": [
        {
          "indexed": false,
          "name": "delayInSeconds",
          "type": "uint256"
        }
      ],
      "name": "WithdrawDelayUpdated",
      "type": "event"
    }
  ],
  "bytecode": "0x6080604052603c6007819055610400600f8190556010805461ffff1916909117905560145534801561003057600080fd5b50614838806100406000396000f3006080604052600436106102c95763ffffffff7c01000000000000000000000000000000000000000000000000000000006000350416630928d15281146102ce57806309413a51146102fa5780630e27324d1461031b5780630f26ccd41461033e578063173825d91461036557806319796a351461038657806323a6f9ce146103aa5780632532d2f7146103cb57806329426661146103ec57806329f21a221461040d5780632eca7b9b146104225780632f54bf6e146104475780633015f3f21461046857806334dc74cb1461049e57806335201f1f146104ca57806339ba645b146104df5780633b1f654a146105005780633fea484714610518578063443803781461053957806344ca204814610599578063467eacc2146105ba5780634ba97285146105db57806353aa4307146105fc5780635ad7e0671461061d5780635ae0c590146106325780635f05b092146106535780635ff8b778146106cf578063658421ea1461071f5780636d92d0e8146107345780637065cb48146107b557806370eb7534146107d6578063719be07e146107eb578063727310621461080057806372f0cb301461085457806373d1f0eb1461086c57806380a317f11461088157806387ab18e1146108965780639147fe70146108ab57806392b9789714610907578063958ef0c21461092b5780639809d16f146109405780639d7faff9146109555780639f41fe9a14610976578063a81ddd291461061d578063ad2fd2301461098b578063b80ebf41146109a7578063ba9bead7146109c8578063c136797b146109dd578063c96e5627146109f2578063ca7ead2e14610a07578063d1c469f814610a1f578063d474c05114610a34578063d887f0ad14610a68578063d99dfe6514610a7d578063db5d3e2114610a92578063dff4f6ad14610aa7578063e2896dcc14610abc578063e77db23214610add578063f025d18714610afe578063f9820ba414610b13575b600080fd5b3480156102da57600080fd5b506102e6600435610b28565b604080519115158252519081900360200190f35b34801561030657600080fd5b506102e6600160a060020a0360043516610dfc565b34801561032757600080fd5b5061033c600160a060020a0360043516610e2e565b005b34801561034a57600080fd5b50610353610f59565b60408051918252519081900360200190f35b34801561037157600080fd5b5061033c600160a060020a0360043516610f60565b34801561039257600080fd5b50610353600160a060020a0360043516602435611093565b3480156103b657600080fd5b506102e6600160a060020a03600435166110c3565b3480156103d757600080fd5b5061033c600160a060020a03600435166110f6565b3480156103f857600080fd5b506102e6600160a060020a0360043516611285565b34801561041957600080fd5b5061033c61128e565b610353600160a060020a03600435166024351515604435151561ffff606435166112cf565b34801561045357600080fd5b506102e6600160a060020a036004351661180a565b34801561047457600080fd5b50610483600435602435611828565b60408051921515835260208301919091528051918290030190f35b3480156104aa57600080fd5b506104b36118f5565b6040805161ffff9092168252519081900360200190f35b3480156104d657600080fd5b5061033c6118fb565b3480156104eb57600080fd5b5061033c600160a060020a03600435166119c2565b34801561050c57600080fd5b5061033c600435611c08565b34801561052457600080fd5b5061033c600160a060020a0360043516611cbb565b34801561054557600080fd5b5061055a600160a060020a0360043516611dae565b604080519687529415156020870152600293840b90930b8585015262ffffff9182166060860152811660808501521660a0830152519081900360c00190f35b3480156105a557600080fd5b5061033c600160a060020a0360043516611e02565b3480156105c657600080fd5b5061033c600160a060020a036004351661208c565b3480156105e757600080fd5b5061033c600160a060020a036004351661221b565b34801561060857600080fd5b506102e6600160a060020a0360043516612389565b34801561062957600080fd5b50610353612392565b34801561063e57600080fd5b5061033c600160a060020a0360043516612399565b34801561065f57600080fd5b5061066b600435612535565b6040805163ffffffff909916895260ff9097166020890152600295860b860b8888015293850b90940b606087015262ffffff9091166080860152600160a060020a0390811660a08601529190911660c084015260e083015251908190036101000190f35b3480156106db57600080fd5b506106e46125af565b60408051600160a060020a039586168152600294850b850b60208201529290941682850152820b90910b606082015290519081900360800190f35b34801561072b57600080fd5b506103536127bf565b34801561074057600080fd5b5061074c6004356127c5565b604080519a8b52600160a060020a03998a1660208c015297909816898801526060890195909552608088019390935263ffffffff90911660a087015261ffff1660c0860152151560e0850152151561010084015290151561012083015251908190036101400190f35b3480156107c157600080fd5b5061033c600160a060020a0360043516612847565b3480156107e257600080fd5b506104b361292a565b3480156107f757600080fd5b5061033c612934565b34801561080c57600080fd5b50610821600160a060020a0360043516612b7b565b6040518083600581111561083157fe5b60ff168152600160a060020a039092166020830152506040805191829003019150f35b34801561086057600080fd5b5061033c600435612ba6565b34801561087857600080fd5b506104b3612c57565b34801561088d57600080fd5b50610353612c5d565b3480156108a257600080fd5b50610353612c63565b3480156108b757600080fd5b506108c3600435612c69565b6040805163ffffffff909716875260ff909516602087015285850193909352600160a060020a039091166060850152608084015260a0830152519081900360c00190f35b34801561091357600080fd5b50610353600160a060020a0360043516602435612cb3565b34801561093757600080fd5b50610353612cce565b34801561094c57600080fd5b5061033c612cd3565b34801561096157600080fd5b50610353600160a060020a0360043516612e19565b34801561098257600080fd5b50610353612e2b565b34801561099757600080fd5b5061033c61ffff60043516612e31565b3480156109b357600080fd5b5061033c600160a060020a0360043516612ef9565b3480156109d457600080fd5b50610353613027565b3480156109e957600080fd5b506104b361302d565b3480156109fe57600080fd5b50610353613037565b348015610a1357600080fd5b5061033c60043561303d565b348015610a2b57600080fd5b506103536130ed565b348015610a4057600080fd5b50610a4c6004356130f3565b60408051600160a060020a039092168252519081900360200190f35b348015610a7457600080fd5b506104b361311b565b348015610a8957600080fd5b506104b361312b565b348015610a9e57600080fd5b5061035361313d565b348015610ab357600080fd5b50610353613143565b348015610ac857600080fd5b5061033c600160a060020a036004351661314a565b348015610ae957600080fd5b506102e6600160a060020a03600435166132b8565b348015610b0a57600080fd5b506103536132f7565b348015610b1f57600080fd5b506103536132fc565b600081815260116020526040812081610b4033612389565b1515610be2576040805160e560020a62461bcd02815260206004820152605660248201527f4164647265737365732077686963682068617665206c6f73742074686569722060448201527f676f7665726e696e672070726976696c65676573206d6179206e6f742066696e60648201527f616c697a6520616e79207769746864726177616c732e00000000000000000000608482015290519081900360a40190fd5b8154640100000000900460ff16600114610c6c576040805160e560020a62461bcd02815260206004820152603460248201527f5769746864726177616c206d7573742068617665206265656e2073746172746560448201527f64206265666f72652066696e616c697a696e672e000000000000000000000000606482015290519081900360840190fd5b601454600483015401421015610d18576040805160e560020a62461bcd02815260206004820152604760248201527f46756c6c205769746864726177616c44656c6179206d7573742068617665207060448201527f61737365642073696e6365207374617274696e67206265666f72652066696e6160648201527f6c697a696e672e00000000000000000000000000000000000000000000000000608482015290519081900360a40190fd5b50805464ff00000000191664020000000017808255426004830155600282015460405163ffffffff909216670de0b6b3a7640000026fffffffffffffffffffffffffffffffff1691600160a060020a03909116906108fc8315029083906000818181858888f19350505050158015610d94573d6000803e3d6000fd5b5060028201546001830154600384015460408051888152600160a060020a039094166020850152838101929092526060830152517f20f80d7554c0059da4016e5bfac043eac3e87522178aaa4dda5718488f6d90249181900360800190a15060019392505050565b600080600160a060020a03831660009081526003602052604090205460ff166005811115610e2657fe5b141592915050565b3360009081526020819052604090205460ff161515610e85576040805160e560020a62461bcd02815260206004820152601560248201526000805160206147ed833981519152604482015290519081900360640190fd5b80610e8f816110c3565b1515610f0b576040805160e560020a62461bcd02815260206004820152603560248201527f52656769737472616e742773204b5943206d7573742062652070656e64696e6760448201527f207768656e20746869732069732063616c6c65642e0000000000000000000000606482015290519081900360840190fd5b600160a060020a038216600081815260036020526040808220805460ff191660041790555133917f4c5fd5c97b69932f3ca5075b2ac770cc50a01cebdddda2632e4d1504cc8f34aa91a35050565b627861f881565b3360009081526020819052604090205460ff161515610fb7576040805160e560020a62461bcd02815260206004820152601560248201526000805160206147ed833981519152604482015290519081900360640190fd5b33600160a060020a0382161415611018576040805160e560020a62461bcd02815260206004820181905260248201527f4f776e6572732063616e6e6f742072656d6f7665207468656d73656c7665732e604482015290519081900360640190fd5b600160a060020a03811660009081526020819052604090205460ff1615156001141561109057600160a060020a038116600081815260208190526040808220805460ff19169055600180546000190190555133917fe594d081b4382713733fe631966432c9cea5199afb2db5c3c1931f9f9300367991a35b50565b6012602052816000526040600020818154811015156110ae57fe5b90600052602060002001600091509150505481565b600060025b600160a060020a03831660009081526003602052604090205460ff1660058111156110ef57fe5b1492915050565b3360009081526020819052604090205460ff16151561114d576040805160e560020a62461bcd02815260206004820152601560248201526000805160206147ed833981519152604482015290519081900360640190fd5b600160a060020a03811660009081526003602052604081205460ff16600581111561117457fe5b14611215576040805160e560020a62461bcd02815260206004820152604260248201527f7265676973746572476f7665726e696e672063616e206f6e6c7920626520636160448201527f6c6c6564206f6e2072656769737472616e74732077697468204e6f5265636f7260648201527f642e000000000000000000000000000000000000000000000000000000000000608482015290519081900360a40190fd5b600160a060020a038116600081815260036020526040808220805474ffffffffffffffffffffffffffffffffffffffff001960ff199091166005171690556004805460010190555133917f9a8e1a756666c0aad4d1c4aa6fe0ac9127e902b2072ebd94fd84f3bf04d6084491a350565b600060036110c8565b611296613302565b505060065460408051918252517fc8a0332abe200b5e7ff117e01b27b1ea7e989a7152ad8690ca1e0f0cb1157c3f9181900360200190a1565b6000806112da614718565b6a7c13bc4b2c133c5600000034106112ee57fe5b612fd761ffff8516106112fd57fe5b681b1ae4d6e2ef500000333111611384576040805160e560020a62461bcd02815260206004820152602260248201527f566f74657273206d7573742068617665206174206c656173742035303020455860448201527f432e000000000000000000000000000000000000000000000000000000000000606482015290519081900360840190fd5b600654600010611404576040805160e560020a62461bcd02815260206004820152602660248201527f55736572732063616e6e6f7420766f7465206f6e20746865207a65726f74682060448201527f6379636c652e0000000000000000000000000000000000000000000000000000606482015290519081900360840190fd5b670de0b6b3a7640000340491506fffffffffffffffffffffffffffffffff80831661ffff8616800290911611156114ab576040805160e560020a62461bcd02815260206004820152603960248201527f54686520766f74652076616c7565206d757374206265206174206c656173742060448201527f74686520737175617265206f6620697473207765696768742e00000000000000606482015290519081900360840190fd5b601054600e5461ffff918216911610611534576040805160e560020a62461bcd02815260206004820152603760248201527f54686572652063616e206265206e6f206d6f7265207468616e20312c3032342060448201527f6e6f6d696e65657320696e2065616368206379636c652e000000000000000000606482015290519081900360840190fd5b61153d87612389565b15156115b9576040805160e560020a62461bcd02815260206004820152603d60248201527f54686520766f7465645f666f722061646472657373206d75737420616c72656160448201527f647920626520617070726f76656420666f7220676f7665726e696e672e000000606482015290519081900360840190fd5b6115c233612389565b151561163e576040805160e560020a62461bcd02815260206004820152603a60248201527f54686520766f74696e672061646472657373206d75737420616c72656164792060448201527f626520617070726f76656420666f7220676f7665726e696e672e000000000000606482015290519081900360840190fd5b60016fffffffffffffffffffffffffffffffff831610156116cf576040805160e560020a62461bcd02815260206004820152602360248201527f566f746520776569676874732063616e6e6f74206265206c657373207468616e60448201527f20312e0000000000000000000000000000000000000000000000000000000000606482015290519081900360840190fd5b6116dc8787878588613632565b6040805161014081018252835481526001840154600160a060020a0390811660208084019190915260028601548216838501526003860154606080850191909152600487015460808086019190915260059097015463ffffffff811660a08087019190915261ffff6401000000008304811660c08089019190915260ff660100000000000085048116151560e08a01526701000000000000008504811615156101008a0152680100000000000000009094049093161515610120880152600d899055875133815294850198909852938f16838701528d1515918301919091528b1515968201969096529389169084015290519093507f94ad41938a3c52b325ba6a84d3cd5c11d47eb54e2cd4ae15d1a3ed3f7ff9fd61929181900390910190a15050600d5495945050505050565b600160a060020a031660009081526020819052604090205460ff1690565b60008061183361476c565b61183d8585613fb4565b6040805160c081018252835463ffffffff81168252640100000000900460ff16602080830191909152600180860154838501526002860154600160a060020a0316606080850191909152600387015460808086019190915260049097015460a0850152845186815233938101939093528285018c905282018a9052925192975092955093507ff57c1eceda30f0de0f213802e00eaf59e535b98f34c625b9f37dd346f0896fd6929181900390910190a1509250929050565b61040081565b61190433611285565b1515611980576040805160e560020a62461bcd02815260206004820152602481018290527f61707065616c4b59432063616e206f6e6c792062652063616c6c65642062792060448201527f72656769737472616e74732077686f7365204b59432069732044656e6965642e606482015290519081900360840190fd5b33600081815260036020526040808220805460ff19166002179055517f03f8f1b800636dc73de5bc6d9bc12c21e42cf5889826ba764961324712cc82199190a2565b3360009081526020819052604090205460ff161515611a19576040805160e560020a62461bcd02815260206004820152601560248201526000805160206147ed833981519152604482015290519081900360640190fd5b611a22816132b8565b1515611a9e576040805160e560020a62461bcd02815260206004820152603e60248201527f7265766f6b654b59432063616e206f6e6c792062652063616c6c6564206f6e2060448201527f72656769737472616e7473207769746820617070726f766564204b59432e0000606482015290519081900360840190fd5b600160a060020a038181166000818152600360208181526040808420805460ff191690931790925560028054600160a060020a031916821790819055825160e060020a63e814d1c702815260048101959095529151919094169363e814d1c793602480820194929392918390030190829087803b158015611b1e57600080fd5b505af1158015611b32573d6000803e3d6000fd5b505050506040513d6020811015611b4857600080fd5b505115611bcf57600254604080517f284d163c000000000000000000000000000000000000000000000000000000008152600160a060020a0384811660048301529151919092169163284d163c91602480830192600092919082900301818387803b158015611bb657600080fd5b505af1158015611bca573d6000803e3d6000fd5b505050505b604051600160a060020a0382169033907f19998e7976aa23e4b62233267eb2ad1f5a6e9d0c14ba4e624be9bbb483fa8a8290600090a350565b3360009081526020819052604090205460ff161515611c5f576040805160e560020a62461bcd02815260206004820152601560248201526000805160206147ed833981519152604482015290519081900360640190fd5b620151808110158015611c755750627861f88111155b1515611c8057600080fd5b60078190556040805182815290517f1dae1c820edbbe1097134a9b4dc9daaf1b325f63e1d094c147ca1d44c275fb699181900360200190a150565b33611cc581610dfc565b1515611d41576040805160e560020a62461bcd02815260206004820152603f60248201527f52656769737472616e74206d757374206861766520616c72656164792061707060448201527f6c696564206265666f726520746869732063616e2062652063616c6c65642e00606482015290519081900360840190fd5b33600081815260036020526040808220805474ffffffffffffffffffffffffffffffffffffffff001916610100600160a060020a0388169081029190911790915590519092917f0c7d294a01bb33ad30c5979847ba131140e32c0394abfdac3e9bbf8d900c8fa391a35050565b6008602052600090815260409020805460019091015460ff811690610100810460020b9062ffffff640100000000820481169167010000000000000081048216916a01000000000000000000009091041686565b3360009081526020819052604090205460ff161515611e59576040805160e560020a62461bcd02815260206004820152601560248201526000805160206147ed833981519152604482015290519081900360640190fd5b6005600160a060020a03821660009081526003602052604090205460ff166005811115611e8257fe5b14611f23576040805160e560020a62461bcd02815260206004820152604c60248201527f7265766f6b65476f7665726e696e672063616e206f6e6c792062652063616c6c60448201527f6564206f6e2072656769737472616e74732077686f2061726520417070726f7660648201527f6564476f7665726e696e672e0000000000000000000000000000000000000000608482015290519081900360a40190fd5b600160a060020a038181166000818152600360209081526040808320805460ff1916600490811790915560028054600160a060020a031916841790819055825160e060020a63e814d1c7028152918201959095529051939094169363e814d1c79360248083019491928390030190829087803b158015611fa257600080fd5b505af1158015611fb6573d6000803e3d6000fd5b505050506040513d6020811015611fcc57600080fd5b50511561205357600254604080517f284d163c000000000000000000000000000000000000000000000000000000008152600160a060020a0384811660048301529151919092169163284d163c91602480830192600092919082900301818387803b15801561203a57600080fd5b505af115801561204e573d6000803e3d6000fd5b505050505b604051600160a060020a0382169033907f4bbe248838e4bfb5253c39dffb5fd53815cf695db8df596e565fc5d01b4ff7b790600090a350565b3360009081526020819052604090205460ff1615156120e3576040805160e560020a62461bcd02815260206004820152601560248201526000805160206147ed833981519152604482015290519081900360640190fd5b600160a060020a03811660009081526003602052604081205460ff16600581111561210a57fe5b146121ab576040805160e560020a62461bcd02815260206004820152604560248201527f72656769737465724e6f6e476f7665726e696e672063616e206f6e6c7920626560448201527f2063616c6c6564206f6e2072656769737472616e74732077697468204e6f526560648201527f636f72642e000000000000000000000000000000000000000000000000000000608482015290519081900360a40190fd5b600160a060020a0381166000818152600360205260408082208054600460ff19909116811774ffffffffffffffffffffffffffffffffffffffff001916909155805460010190555133917f75a492aa4c35cc7585db1281931e916eec9e08997dfc41114df961caa86a5ee791a350565b3360009081526020819052604090205460ff161515612272576040805160e560020a62461bcd02815260206004820152601560248201526000805160206147ed833981519152604482015290519081900360640190fd5b6004600160a060020a03821660009081526003602052604090205460ff16600581111561229b57fe5b1461233c576040805160e560020a62461bcd02815260206004820152605060248201527f617070726f7665476f7665726e696e672063616e206f6e6c792062652063616c60448201527f6c6564206f6e2072656769737472616e74732077686f2061726520417070726f60648201527f7665644e6f6e476f7665726e696e672e00000000000000000000000000000000608482015290519081900360a40190fd5b600160a060020a038116600081815260036020526040808220805460ff191660051790555133917f045c83e610879a5bf652498fa70300eec471b598071c4c5ced21e12567e6118391a350565b600060056110c8565b622820a881565b33600090815260208190526040812054819060ff1615156123f2576040805160e560020a62461bcd02815260206004820152601560248201526000805160206147ed833981519152604482015290519081900360640190fd5b826123fc81610dfc565b1515612478576040805160e560020a62461bcd02815260206004820152603f60248201527f52656769737472616e74206d757374206861766520616c72656164792061707060448201527f6c696564206265666f726520746869732063616e2062652063616c6c65642e00606482015290519081900360840190fd5b600160a060020a03841660009081526003602052604090205460ff16600581111561249f57fe5b600160a060020a03808616600081815260036020908152604091829020805474ffffffffffffffffffffffffffffffffffffffffff19811690915560048054600019019055825160ff8716815261010090910490941690840181905281519497509550909233927f65d97d2aa59303cb2310c4c9e837ce7f74106fb762e141468687807530d8d9d592908290030190a350505050565b60056020526000908152604090208054600280830154600384015460049094015463ffffffff841694640100000000850460ff1694650100000000008104850b94680100000000000000008204900b936b01000000000000000000000090910462ffffff1692600160a060020a0391821692919091169088565b600080808080808080805b600e5461ffff90811690821610156127b0576008600060098361ffff168154811015156125e357fe5b6000918252602080832090910154600160a060020a0316835282019290925260400190206001015460ff16156126e0578360020b6008600060098461ffff1681548110151561262e57fe5b6000918252602080832090910154600160a060020a031683528201929092526040019020600101546101009004600290810b900b13156126db576009805461ffff831690811061267a57fe5b600091825260208220015460098054600160a060020a0390921697506008929161ffff85169081106126a857fe5b6000918252602080832090910154600160a060020a03168352820192909252604001902060010154610100900460020b93505b6127a8565b8160020b6008600060098461ffff168154811015156126fb57fe5b6000918252602080832090910154600160a060020a031683528201929092526040019020600101546101009004600290810b900b13156127a8576009805461ffff831690811061274757fe5b600091825260208220015460098054600160a060020a0390921695506008929161ffff851690811061277557fe5b6000918252602080832090910154600160a060020a03168352820192909252604001902060010154610100900460020b91505b6001016125ba565b50929791965094509092509050565b600f5481565b600a602052600090815260409020805460018201546002830154600384015460048501546005909501549394600160a060020a03938416949290931692909163ffffffff81169061ffff6401000000008204169060ff66010000000000008204811691670100000000000000810482169168010000000000000000909104168a565b3360009081526020819052604090205460ff16151561289e576040805160e560020a62461bcd02815260206004820152601560248201526000805160206147ed833981519152604482015290519081900360640190fd5b600160a060020a03811660009081526020819052604090205460ff161580156128cf5750600160a060020a03811615155b1561109057600160a060020a038116600081815260208190526040808220805460ff191660019081179091558054810190555133917fc82bdbbf677a2462f2a7e22e4ba9abd209496b69cd7b868b3b1d28f76e09a40a91a350565b600e5461ffff1681565b60065460009081526005602052604081208054909190819081908190640100000000900460ff166001146129d8576040805160e560020a62461bcd02815260206004820152603460248201527f4379636c6573206d7573742062652073746172746564206265666f726520746860448201527f65792063616e2062652066696e616c697a65642e000000000000000000000000606482015290519081900360840190fd5b600754600486015401421015612a84576040805160e560020a62461bcd02815260206004820152604960248201527f4379636c65732063616e206f6e6c7920626520636c6f7365642061667465722060448201527f7468652066756c6c20476f7665726e616e63654379636c6544656c617920686160648201527f73207061737365642e0000000000000000000000000000000000000000000000608482015290519081900360a40190fd5b612a8c6125af565b60028981018054600160a060020a0319908116600160a060020a03888116919091179092558b5460038d01805490921692861692909217905567ffffff000000000019166501000000000085830b62ffffff90811691909102919091176affffff00000000000000001916680100000000000000009284900b91909116919091021764ff000000001916640200000000178955929650945092509050612b30614471565b600e805465ffffffffffff1916905560065460408051918252517f6fbfbccdd0d107860c9bccfa723d97eba4f37886edeb01e7a438b1e0fe44e0569181900360200190a15050505050565b600160a060020a0380821660009081526003602052604090205460ff81169161010090910416915091565b3360009081526020819052604090205460ff161515612bfd576040805160e560020a62461bcd02815260206004820152601560248201526000805160206147ed833981519152604482015290519081900360640190fd5b60008110158015612c115750622820a88111155b1515612c1c57600080fd5b60148190556040805182815290517fe45306500c5a84a3037639308e96ec82389ee645d043e7a34ff654342872bdbc9181900360200190a150565b61010081565b60065481565b60015481565b6011602052600090815260409020805460018201546002830154600384015460049094015463ffffffff84169464010000000090940460ff1693600160a060020a03909216919086565b600b602052816000526040600020818154811015156110ae57fe5b600081565b3360009081526003602052604081205460ff166005811115612cf157fe5b14612d6c576040805160e560020a62461bcd02815260206004820152603f60248201527f6170706c794b59432063616e206f6e6c792062652063616c6c6564206279207360448201527f656e646572732077697468206e6f206578697374696e67207265636f72642e00606482015290519081900360840190fd5b6040805180820190915280600181526000602091820181905233815260039091526040902081518154829060ff19166001836005811115612da957fe5b0217905550602091909101518154600160a060020a039091166101000274ffffffffffffffffffffffffffffffffffffffff001990911617905560048054600101905560405133907f9fa0a0ab27bb3532e0a5807b1221eff2865fbf4e0653b099c79060b53f5efa7590600090a2565b600c6020526000908152604090205481565b613fff81565b3360009081526020819052604090205460ff161515612e88576040805160e560020a62461bcd02815260206004820152601560248201526000805160206147ed833981519152604482015290519081900360640190fd5b61010061ffff821610801590612ea4575061040061ffff821611155b1515612eaf57600080fd5b6010805461ffff831661ffff19909116811790915560408051918252517fc8470cf3f4181cc6f7f993a08079f3d45294a3dacee10b98153d5fc54f1de0bd9181900360200190a150565b3360009081526020819052604090205460ff161515612f50576040805160e560020a62461bcd02815260206004820152601560248201526000805160206147ed833981519152604482015290519081900360640190fd5b80612f5a816110c3565b1515612fd6576040805160e560020a62461bcd02815260206004820152603560248201527f52656769737472616e742773204b5943206d7573742062652070656e64696e6760448201527f207768656e20746869732069732063616c6c65642e0000000000000000000000606482015290519081900360840190fd5b600160a060020a0382166000818152600360208190526040808320805460ff19169092179091555133917f25b52ce1cec4a0b58546e3364f909bc3a67330feb1052c53ed71bdc0ce7ca0e691a35050565b60145481565b60105461ffff1681565b60045481565b3360009081526020819052604090205460ff161515613094576040805160e560020a62461bcd02815260206004820152601560248201526000805160206147ed833981519152604482015290519081900360640190fd5b600181101580156130a75750613fff8111155b15156130b257600080fd5b600f8190556040805182815290517f923b44901fc7818c4c283609ee35931351fa14534f53db09797367d4f734c1669181900360200190a150565b600d5481565b600980548290811061310157fe5b600091825260209091200154600160a060020a0316905081565b600e5462010000900461ffff1681565b600e54640100000000900461ffff1681565b60135481565b6201518081565b3360009081526020819052604090205460ff1615156131a1576040805160e560020a62461bcd02815260206004820152601560248201526000805160206147ed833981519152604482015290519081900360640190fd5b6001600160a060020a03821660009081526003602052604090205460ff1660058111156131ca57fe5b1461326b576040805160e560020a62461bcd02815260206004820152604260248201527f70726f636573734b59432063616e206f6e6c792062652063616c6c6564206f6e60448201527f2072656769737472616e747320696e20746865204170706c696564207374617460648201527f652e000000000000000000000000000000000000000000000000000000000000608482015290519081900360a40190fd5b600160a060020a038116600081815260036020526040808220805460ff191660021790555133917f11a2d12075444130457ce8d40659df4f4bfd065e5cf035403e3f0b0f97bf828e91a350565b60006004600160a060020a03831660009081526003602052604090205460ff1660058111156132e357fe5b14806132f1575060056110c8565b92915050565b600181565b60075481565b60008061330d6147a1565b6006546000908152600560209081526040808320815161012081018352815463ffffffff81168252640100000000810460ff1682860152650100000000008104600290810b810b810b83860152680100000000000000008204810b810b900b60608301526b010000000000000000000000900462ffffff1660808201526001820180548451818702810187019095528085529194929360a08601939092908301828280156133da57602002820191906000526020600020905b8154815260200190600101908083116133c6575b50505091835250506002820154600160a060020a03908116602083015260038301541660408201526004909101546060909101526006549092501580156134265750602082015160ff16155b1561345b57506006546000908152600560205260409020805464ff00000000191664020000000017815542600482015561362c565b602082015160ff166002146134e0576040805160e560020a62461bcd02815260206004820152603860248201527f4c6174657374206379636c65206d75737420626520436f6d706c65746564206260448201527f65666f7265206f70656e696e672061206e6577206f6e652e0000000000000000606482015290519081900360840190fd5b60075461010083015101421015613567576040805160e560020a62461bcd02815260206004820152603d60248201527f46756c6c20476f7665726e616e63654379636c6544656c6179206d757374207060448201527f617373206265666f7265206f70656e696e67206e6577206379636c652e000000606482015290519081900360840190fd5b60065460010160008181526005602052604090208054909550909350640100000000900460ff1615613609576040805160e560020a62461bcd02815260206004820152602d60248201527f4e6577657374207265636f7264206d75737420626520696e204e6f5265636f7260448201527f64207a65726f2073746174652e00000000000000000000000000000000000000606482015290519081900360840190fd5b835464ff0000000019166401000000001784554260048501556006805460010190555b50509091565b600654336000908152600c60205260408120549091829182918291106136c7576040805160e560020a62461bcd028152602060048201526024808201527f566f746572732063616e206f6e6c7920766f7465206f6e63652070657220637960448201527f636c652e00000000000000000000000000000000000000000000000000000000606482015290519081900360840190fd5b6136d033612389565b151561374c576040805160e560020a62461bcd02815260206004820152603860248201527f566f74696e6720616464726573736573206d75737420616c726561647920626560448201527f20617070726f76656420666f7220676f7665726e696e672e0000000000000000606482015290519081900360840190fd5b5050600654336000908152600c60209081526040808320849055600d54600101808452600a835281842085855260058452828520600160a060020a038e168652600885529290942060028054600160a060020a03191690941790935582549396509450929091146139c657600f5463ffffffff87161015613863576040805160e560020a62461bcd02815260206004820152604960248201527f546865206d696e696d756d2077656967687420746f206e6f6d696e617465206160448201527f6e20616464726573732069732033322c206120766f746520636f7374206f662060648201527f31303234204558432e0000000000000000000000000000000000000000000000608482015290519081900360a40190fd5b600e5460095461ffff90911614156138c557600980546001810182556000919091527f6e1540171b6c0c960b71a7020d9f60077f6af931a8bbf590da0223dacf75c7af018054600160a060020a031916600160a060020a038b1617905561390a565b600e54600980548b9261ffff169081106138db57fe5b9060005260206000200160006101000a815481600160a060020a030219169083600160a060020a031602179055505b600e805461ffff198116600161ffff928316810190921617909155881515141561395757600e8054600161ffff62010000808404821692909201160263ffff000019909116179055613980565b600e8054600161ffff640100000000808404821692909201160265ffff00000000199091161790555b6006805482556001808301805460ff19168b1515176cffffffffffffffffffffffff00191690559054600283018054928301815560009081526020902090910155613ac9565b60018815151415613ac9576002546040805160e060020a63e814d1c70281523360048201529051600160a060020a039092169163e814d1c7916024808201926020929091908290030181600087803b158015613a2157600080fd5b505af1158015613a35573d6000803e3d6000fd5b505050506040513d6020811015613a4b57600080fd5b50511515613ac9576040805160e560020a62461bcd02815260206004820152603f60248201527f4f6e6c792063757272656e7420626c6f636b6d616b657273206d617920766f7460448201527f65206f6e206e6f6d696e65657320746f206a6f696e2074686520706f6f6c2e00606482015290519081900360840190fd5b60018815151415613b61576002546040805160e060020a63e814d1c7028152600160a060020a038c811660048301529151919092169163e814d1c79160248083019260209291908290030181600087803b158015613b2657600080fd5b505af1158015613b3a573d6000803e3d6000fd5b505050506040513d6020811015613b5057600080fd5b505115613b5c57600080fd5b613bea565b6002546040805160e060020a63e814d1c7028152600160a060020a038c811660048301529151919092169163e814d1c79160248083019260209291908290030181600087803b158015613bb357600080fd5b505af1158015613bc7573d6000803e3d6000fd5b505050506040513d6020811015613bdd57600080fd5b50511515613bea57600080fd5b600654815414613bf657fe5b8154640100000000900460ff16600114613c80576040805160e560020a62461bcd02815260206004820152603f60248201527f566f7465732063616e206f6e6c79206265206d616465207768656e207468652060448201527f63757272656e74206379636c6520686173206265656e20737461727465642e00606482015290519081900360840190fd5b6006548460000181905550338460010160006101000a815481600160a060020a030219169083600160a060020a03160217905550888460020160006101000a815481600160a060020a030219169083600160a060020a03160217905550878460050160066101000a81548160ff021916908315150217905550868460050160076101000a81548160ff021916908315150217905550858460050160006101000a81548163ffffffff021916908363ffffffff160217905550848460050160046101000a81548161ffff021916908361ffff16021790555042846004018190555080600101600a81819054906101000a900462ffffff168092919060010191906101000a81548162ffffff021916908362ffffff160217905550508715613e6a5760018082015460ff16151514613db257fe5b8615613e0d5760018101805466ffffff000000001963ffffff0019821662ffffff61ffff8a1661010094859004600290810b8201900b8216909402919091179182166401000000009283900482169093011602179055613e65565b60018101805469ffffff000000000000001963ffffff0019821662ffffff61ffff8a1661010094859004600290810b829003900b82169094029190911791821667010000000000000092839004821690930116021790555b613f2c565b600181015460ff1615613e7957fe5b8615613ed45760018101805466ffffff000000001963ffffff0019821662ffffff61ffff8a1661010094859004600290810b8201900b8216909402919091179182166401000000009283900482169093011602179055613f2c565b60018101805469ffffff000000000000001963ffffff0019821662ffffff61ffff8a1661010094859004600290810b829003900b82169094029190911791821667010000000000000092839004821690930116021790555b815462ffffff6b01000000000000000000000063ffffffff8084168a011663ffffffff1990931692909217828104821660019081019092169092026dffffff000000000000000000000019909216919091178355600d805482019055336000908152600b60209081526040822080549384018155825290200183905550509550959350505050565b600080613fbf6147a1565b6000858152600560209081526040808320815161012081018352815463ffffffff81168252640100000000810460ff1682860152650100000000008104600290810b810b810b83860152680100000000000000008204810b810b900b60608301526b010000000000000000000000900462ffffff1660808201526001820180548451818702810187019095528085529194929360a086019390929083018282801561408957602002820191906000526020600020905b815481526020019060010190808311614075575b5050509183525050600282810154600160a060020a0390811660208085019190915260038501549091166040808501919091526004909401546060909301929092526000898152600a83529290922090830151929450925060ff90911614614161576040805160e560020a62461bcd02815260206004820152603f60248201527f42616c6c6f742773206379636c65206d75737420626520636f6d706c6574656460448201527f206265666f726520626567696e6e696e672061207769746864726177616c2e00606482015290519081900360840190fd5b6001810154600160a060020a031633146141eb576040805160e560020a62461bcd02815260206004820152603760248201527f566f746572732063616e206f6e6c7920626567696e207769746864726177616c60448201527f73206f6e207468656972206f776e2062616c6c6f74732e000000000000000000606482015290519081900360840190fd5b80548614614269576040805160e560020a62461bcd02815260206004820152603360248201527f42616c6c6f74206d7573742062652066726f6d2074686520737065636966696560448201527f6420676f7665726e616e6365206379636c652e00000000000000000000000000606482015290519081900360840190fd5b600581015468010000000000000000900460ff16156142f8576040805160e560020a62461bcd02815260206004820152602f60248201527f42616c6c6f742063616e6e6f7420616c7265616479206861766520612077697460448201527f6864726177616c207265636f72642e0000000000000000000000000000000000606482015290519081900360840190fd5b600381015415614378576040805160e560020a62461bcd02815260206004820152603a60248201527f42616c6c6f742773207769746864726177616c5265636f72644964206d75737460448201527f20626520617420696e697469616c207a65726f2076616c75652e000000000000606482015290519081900360840190fd5b601354600101600081815260116020526040902060058301805468ff0000000000000000191668010000000000000000179055600383018290558054909550909350640100000000900460ff16156143cc57fe5b835464ff0000000019166401000000001784556001840186905560038401859055600284018054600160a060020a031916331790556080820151825162ffffff9091169063ffffffff1681151561441f57fe5b855463ffffffff191691900463ffffffff161784555050426004830155601380546001908101909155336000908152601260209081526040822080549384018155825290200181905590939092509050565b6006546000908152600560205260408120548190640100000000900460ff16600214614533576040805160e560020a62461bcd02815260206004820152604960248201527f65786563757465476f7665726e616e63652063616e206f6e6c7920626520636160448201527f6c6c6564207768656e207468652063757272656e74206379636c65206973204360648201527f6f6d706c657465642e0000000000000000000000000000000000000000000000608482015290519081900360a40190fd5b505060065460009081526005602090815260409091206002808201546003909201548154600160a060020a0319169093179055600160a060020a039081169116811561463f57600254604080517f72a571fc000000000000000000000000000000000000000000000000000000008152600160a060020a038581166004830152915191909216916372a571fc91602480830192600092919082900301818387803b1580156145e057600080fd5b505af11580156145f4573d6000803e3d6000fd5b505060065460408051600160a060020a0387168152602081019290925280517f548d80f2f20f03e1d25db3a25d1f42723afcd95a876c6be9745a1d9c79287979945091829003019150a15b600160a060020a0381161561471457600254604080517f284d163c000000000000000000000000000000000000000000000000000000008152600160a060020a0384811660048301529151919092169163284d163c91602480830192600092919082900301818387803b1580156146b557600080fd5b505af11580156146c9573d6000803e3d6000fd5b505060065460408051600160a060020a0386168152602081019290925280517f464684ccc15aa295f664037cf727e3c268cdca0671227d4cdc45bac1b20d5bb4945091829003019150a15b5050565b6040805161014081018252600080825260208201819052918101829052606081018290526080810182905260a0810182905260c0810182905260e08101829052610100810182905261012081019190915290565b6040805160c081018252600080825260208201819052918101829052606081018290526080810182905260a081019190915290565b604080516101208101825260008082526020820181905291810182905260608082018390526080820183905260a082015260c0810182905260e0810182905261010081019190915290560053656e646572206d757374206265206f776e65722e0000000000000000000000a165627a7a72305820c9cc246b312cd234fbe1232ab37b243ce4d45056d157889fdaa9f83e5343a9450029",
  "source": "pragma solidity ^0.4.10;\n\nimport \"./BlockVotingDeployable.sol\";\n\n/**\n  # VOTE INTEGER SIZE DECISIONS\n\n  This governance contract has a number of optimizations built specifically for \n  the Exim blockchain.  These optimizations are based on:\n    1. Quadratic voting system where voting v costs v**2 tokens\n    2. A total token supply for 150M tokens\n    3. Minimum requirement of 500 tokens to cast vote\n  This leads to:\n\n  - MAX SINGLE VOTE (uint16): Maximum vote is sqrt(150M)=12,247. Each \n    BallotRecord stores the vote as a uint16, which handles up to 65,536.\n\n  - MAX TOTAL VOTE (int24): Atleast one person needs to be nominated by a voter, that voter \n    must hold 500 tokens and casts 32 votes (for 1024 tokens)for the nomination leaving: \n    150M - 500 - 1024 = 149998476 tokens in circulation. Each voter thereafter must also hold 500 tokens \n    and can cast a minimum of 1 vote with 1 token.  and  so at a max supply of 149998476, the max number \n    of votes any candidate can receive in an election is 32 + 149998476/501=299k votes, either positive or \n    negative. The nominee and governance ballots store this in the smallest \n    possible int, int24 (maxes at +/-8.35M).\n\n  - MAX AMOUNT (uint32): If somebody held every token and used every one to vote, \n    the amount for that vote would be 150M.  The BallotRecord and NomineeBallot \n    store the amount as a uint32, the smallest uint which can hold 150M (maxes at 4.29B).\n\n */\n\ncontract WeylGovDeployable {\n// Keeping section comments one indent out makes it easy to fold each section in VS Code (cmd+a, cmd+k+0).\n////// OWNER MANAGEMENT ////////\n  \n  // State\n  mapping(address => bool) private owners;\n  uint public numOwners;\n\n  // Consensus interface\n  BlockVotingDeployable consensus;\n\n  // Modifier\n  modifier onlyOwner(){\n      require(owners[msg.sender], \"Sender must be owner.\");\n      _;\n  }\n\n  // Getter\n  function isOwner(address maybeOwner) public constant returns (bool) {\n      return owners[maybeOwner];\n  }\n\n  // Setters\n  event OwnerAdded(address indexed approvingOwner, address indexed newOwner);\n  function addOwner(address newOwner) public onlyOwner {\n      if (owners[newOwner] == false && newOwner != address(0)){\n          owners[newOwner] = true;\n          numOwners += 1;\n          emit OwnerAdded(msg.sender, newOwner);\n      }\n  }\n\n  event OwnerRemoved(address indexed removingOwner, address indexed removedOwner);\n  function removeOwner(address removedOwner) public onlyOwner {\n      require(msg.sender != removedOwner, \"Owners cannot remove themselves.\");\n      if (owners[removedOwner] == true){\n          owners[removedOwner] = false;\n          numOwners -= 1;\n          emit OwnerRemoved(msg.sender, removedOwner);\n      }\n  }\n\n////// REGISTRY MANAGEMENT /////\n\n  // Types & State\n  enum KYCStates { None, Applied, Pending, Denied, ApprovedNonGoverning, ApprovedGoverning }\n\n  struct Registration {\n      KYCStates KYCState;\n      address PersonalRegistry;\n  }\n\n  mapping(address => Registration) private registry;\n  uint public numRegistered;\n\n  // Getters\n  function getRegistration(address registrant)\n  public constant returns (KYCStates, address) {\n      return (registry[registrant].KYCState, registry[registrant].PersonalRegistry);\n  }\n\n  function hasApplied(address registrant) public constant returns (bool) {\n      return registry[registrant].KYCState != KYCStates.None;\n  }\n\n  function isKYCPending(address registrant) public constant returns (bool) {\n      return registry[registrant].KYCState == KYCStates.Pending;\n  }\n\n  function isKYCApproved(address registrant) public constant returns (bool) {\n      return registry[registrant].KYCState == KYCStates.ApprovedNonGoverning || registry[registrant].KYCState == KYCStates.ApprovedGoverning;\n  }\n\n  function isKYCDenied(address registrant) public constant returns (bool) {\n      return registry[registrant].KYCState == KYCStates.Denied;\n  }\n\n  function canGovern(address registrant) public constant returns (bool) {\n      return registry[registrant].KYCState == KYCStates.ApprovedGoverning;\n  }\n\n  // Modifiers\n  modifier ApplicationExists(address registrant){\n      require(hasApplied(registrant), \"Registrant must have already applied before this can be called.\");\n      _;\n  }\n\n  modifier KYCPending(address registrant){\n      require(isKYCPending(registrant), \"Registrant's KYC must be pending when this is called.\");\n      _;\n  }\n\n  // Setters\n  event UpdatedPersonalRegistry(address indexed updatingEntry, address indexed newRegistry);\n  function updatePersonalRegistry(address newRegistry) public ApplicationExists(msg.sender) {\n      registry[msg.sender].PersonalRegistry = newRegistry;\n      emit UpdatedPersonalRegistry(msg.sender, newRegistry);\n  }\n\n  event AppliedKYC(address indexed newEntry);\n  function applyKYC() public {\n      require(registry[msg.sender].KYCState == KYCStates.None, \"applyKYC can only be called by senders with no existing record.\");\n      registry[msg.sender] = Registration(KYCStates.Applied, address(0));\n      numRegistered += 1;\n      emit AppliedKYC(msg.sender);\n  }\n\n  event DeletedKYC(address indexed removingOwner, address indexed removedEntry, uint8 finalKYC, address finalPersonalRegistry);\n  function deleteKYC(address registrant) \n  public onlyOwner ApplicationExists(registrant) {\n      uint8 finalKYC = uint8(registry[registrant].KYCState);\n      address finalPersonalRegistry = registry[registrant].PersonalRegistry;\n      delete registry[registrant];\n      numRegistered -= 1;\n      emit DeletedKYC(msg.sender, registrant, finalKYC, finalPersonalRegistry);\n  }\n\n  event ProcessedKYC(address indexed approvingOwner, address indexed pendingEntry);\n  function processKYC(address registrant) public onlyOwner {\n      require(registry[registrant].KYCState == KYCStates.Applied, \"processKYC can only be called on registrants in the Applied state.\");\n      registry[registrant].KYCState = KYCStates.Pending;\n      emit ProcessedKYC(msg.sender, registrant);\n  }\n\n  event ApprovedKYC(address indexed approvingOwner, address indexed approvedEntry);\n  function approveKYC(address registrant)\n  public onlyOwner KYCPending(registrant) {\n      registry[registrant].KYCState = KYCStates.ApprovedNonGoverning;\n      emit ApprovedKYC(msg.sender, registrant);\n  }\n\n  event RevokedKYC(address indexed revertingOwner, address indexed entry);\n  function revokeKYC(address registrant) public onlyOwner {\n      require(isKYCApproved(registrant), \"revokeKYC can only be called on registrants with approved KYC.\");\n      registry[registrant].KYCState = KYCStates.Denied;\n      consensus = BlockVotingDeployable(0x0000000000000000000000000000000000000020);\n      if (consensus.isBlockMaker(registrant)){\n          consensus.removeBlockMaker(registrant);\n      }\n      emit RevokedKYC(msg.sender, registrant);\n  }\n\n  event DeniedKYC(address indexed denyingOwner, address indexed deniedEntry);\n  function denyKYC(address registrant) \n  public onlyOwner KYCPending(registrant) {\n      registry[registrant].KYCState = KYCStates.Denied;\n      emit DeniedKYC(msg.sender, registrant);\n  }\n\n  event AppealedKYC(address indexed appealingRegistrant);\n  function appealKYC() public {\n      require(isKYCDenied(msg.sender), \"appealKYC can only be called by registrants whose KYC is Denied.\");\n      registry[msg.sender].KYCState = KYCStates.Pending;\n      emit AppealedKYC(msg.sender);\n  }\n\n  event ApprovedGoverning(address indexed approvingOwner, address indexed voter);\n  function approveGoverning(address registrant) public onlyOwner {\n      require(registry[registrant].KYCState == KYCStates.ApprovedNonGoverning, \"approveGoverning can only be called on registrants who are ApprovedNonGoverning.\");\n      registry[registrant].KYCState = KYCStates.ApprovedGoverning;\n      emit ApprovedGoverning(msg.sender, registrant);\n  }\n\n  event RevokedGoverning(address indexed revokingOwner, address indexed nonvoter);\n  function revokeGoverning(address registrant) public onlyOwner {\n      require(registry[registrant].KYCState == KYCStates.ApprovedGoverning, \"revokeGoverning can only be called on registrants who are ApprovedGoverning.\");\n      registry[registrant].KYCState = KYCStates.ApprovedNonGoverning;\n      consensus = BlockVotingDeployable(0x0000000000000000000000000000000000000020);\n      if (consensus.isBlockMaker(registrant)){\n          consensus.removeBlockMaker(registrant);\n      }\n      emit RevokedGoverning(msg.sender, registrant);\n  }\n\n  event RegisteredGoverning(address indexed registeringOwner, address indexed voter);\n  function registerGoverning(address registrant) public onlyOwner {\n      require(registry[registrant].KYCState == KYCStates.None, \"registerGoverning can only be called on registrants with NoRecord.\");\n      registry[registrant].KYCState = KYCStates.ApprovedGoverning;\n      registry[registrant].PersonalRegistry = address(0);\n      numRegistered += 1;\n      emit RegisteredGoverning(msg.sender, registrant);\n  }\n\n  event RegisteredNonGoverning(address indexed registeringOwner, address indexed nonvoter);\n  function registerNonGoverning(address registrant) public onlyOwner {\n      require(registry[registrant].KYCState == KYCStates.None, \"registerNonGoverning can only be called on registrants with NoRecord.\");\n      registry[registrant].KYCState = KYCStates.ApprovedNonGoverning;\n      registry[registrant].PersonalRegistry = address(0);\n      numRegistered += 1;\n      emit RegisteredNonGoverning(msg.sender, registrant);\n  }\n\n////// GOVERNANCE CYCLES ///////\n  uint8 constant GovernanceCycleNoRecord = 0;\n  uint8 constant GovernanceCycleStarted = 1;\n  uint8 constant GovernanceCycleCompleted = 2;\n  mapping(uint => GovernanceCycle) public governanceCycleRecords;\n  uint public currentGovernanceCycle;\n\n  enum GovernanceCycleStatus {\n      NoRecord,\n      Started,\n      Completed\n  }\n\n  struct GovernanceCycle{\n    uint32 totalPayments;\n    uint8 status;\n    int24 electionVotesElected;\n    int24 evictionVotesEvicted;\n    uint24 totalVoters;\n    uint[] ballotIds;\n    address elected;\n    address evicted;\n    uint256 start;\n  }\n\n  // Average month accounts for varying month lengths and February 29th:\n  // ((365 d/y)*(4y)+(1d))/(48mo/y) = 30.4375d = 43830min\n  uint256 constant public AverageMonth = 43830 minutes;\n  uint256 constant public GovernanceCycleDelayFloor = 24 hours;\n  uint256 constant public GovernanceCycleDelayCeiling = 3 * AverageMonth;\n  uint256 public GovernanceCycleDelay = (60 seconds);\n  event GovernanceCycleDelayUpdated(uint256 _delayInSeconds);\n  function setGovernanceCycleDelay(uint256 delayInSeconds) public onlyOwner {\n    require(delayInSeconds >= GovernanceCycleDelayFloor && delayInSeconds <= GovernanceCycleDelayCeiling);\n    GovernanceCycleDelay = delayInSeconds;\n    emit GovernanceCycleDelayUpdated(delayInSeconds);\n  }\n\n  event CycleStarted(uint256 cycleId);\n  event CycleFinalized(uint256 cycleId);\n  function newGovernanceCycle() public {\n    populateGovernanceCycleRecord();\n    emit CycleStarted(currentGovernanceCycle);\n  }\n\n  function findWinners() public constant returns (address, int24, address, int24) {\n    address electionWinner = address(0);\n    int24 electionWinnerCount = 0;\n    address evictionWinner = address(0);\n    int24 evictionWinnerCount = 0;\n    for (uint16 i = 0; i < nomineesInCycle; i++){\n      if (nomineeBallots[nomineeBallotKeys[i]].election){\n        if (nomineeBallots[nomineeBallotKeys[i]].votes > electionWinnerCount){\n          electionWinner = nomineeBallotKeys[i];\n          electionWinnerCount = nomineeBallots[nomineeBallotKeys[i]].votes;\n        }\n      } else {\n        if (nomineeBallots[nomineeBallotKeys[i]].votes > evictionWinnerCount){\n          evictionWinner = nomineeBallotKeys[i];\n          evictionWinnerCount = nomineeBallots[nomineeBallotKeys[i]].votes;\n        }\n      }\n    }\n    return (electionWinner, electionWinnerCount, evictionWinner, evictionWinnerCount);\n  }\n\n  function finalizeGovernanceCycle() public {\n    GovernanceCycle storage latestGovernanceCycle = governanceCycleRecords[currentGovernanceCycle];\n    require(latestGovernanceCycle.status==GovernanceCycleStarted, \"Cycles must be started before they can be finalized.\");\n    require(now >= latestGovernanceCycle.start + GovernanceCycleDelay, \"Cycles can only be closed after the full GovernanceCycleDelay has passed.\");\n    address electionWinner;\n    address evictionWinner;\n    int24 electionWinnerCount;\n    int24 evictionWinnerCount;\n    (electionWinner, electionWinnerCount, evictionWinner, evictionWinnerCount) = findWinners();\n    latestGovernanceCycle.elected = electionWinner;\n    latestGovernanceCycle.electionVotesElected = electionWinnerCount;\n    latestGovernanceCycle.evicted = evictionWinner;\n    latestGovernanceCycle.evictionVotesEvicted = evictionWinnerCount;\n    latestGovernanceCycle.status = GovernanceCycleCompleted;\n    executeGovernance();\n    nomineesInCycle = 0;\n    electionNomineesInCycle = 0;\n    evictionNomineesInCycle = 0;\n    emit CycleFinalized(currentGovernanceCycle);\n  }\n\n  event AddedBlockMaker(address newMaker, uint256 cycleId);\n  event RemovedBlockMaker(address oldMaker, uint256 cycleId);\n  function executeGovernance() private {\n    require(governanceCycleRecords[currentGovernanceCycle].status == GovernanceCycleCompleted, \"executeGovernance can only be called when the current cycle is Completed.\");\n    address electedBlockMaker = governanceCycleRecords[currentGovernanceCycle].elected;\n    address evictedBlockMaker = governanceCycleRecords[currentGovernanceCycle].evicted;\n    consensus = BlockVotingDeployable(0x0000000000000000000000000000000000000020);\n    if (electedBlockMaker != address(0)){\n      consensus.addBlockMaker(electedBlockMaker);\n      emit AddedBlockMaker(electedBlockMaker, currentGovernanceCycle);\n    }\n    if (evictedBlockMaker != address(0)){\n      consensus.removeBlockMaker(evictedBlockMaker);\n      emit RemovedBlockMaker(evictedBlockMaker, currentGovernanceCycle);\n    }\n  }\n\n  function populateGovernanceCycleRecord() internal returns (GovernanceCycle storage record, uint256 index) {\n    GovernanceCycle memory latestGovernanceCycle = governanceCycleRecords[currentGovernanceCycle];\n    if (currentGovernanceCycle == 0 && latestGovernanceCycle.status == GovernanceCycleNoRecord){\n      GovernanceCycle storage burnGovernanceCycle = governanceCycleRecords[currentGovernanceCycle];\n      burnGovernanceCycle.status = GovernanceCycleCompleted;\n      burnGovernanceCycle.start = now;\n      return (record, index);\n    } else {\n      require(latestGovernanceCycle.status == GovernanceCycleCompleted, \"Latest cycle must be Completed before opening a new one.\");\n      require(now >= latestGovernanceCycle.start + GovernanceCycleDelay, \"Full GovernanceCycleDelay must pass before opening new cycle.\");\n      index = currentGovernanceCycle+1;\n      record = governanceCycleRecords[index];\n      require(record.status == GovernanceCycleNoRecord, \"Newest record must be in NoRecord zero state.\");\n      record.status = GovernanceCycleStarted;\n      record.start = now;\n      currentGovernanceCycle ++;\n      return (record, index);\n    }\n\n  }\n\n////// BALLOTS /////////////////\n\n  struct BallotRecord {\n        uint governanceCycleId;\n        address voter;\n        address voted_for;\n        uint256 withdrawRecordId;\n        uint256 timestamp;\n        uint32 amount;\n        uint16 votes;\n        bool election;\n        bool inSupport;\n        bool withdrawRecord;\n  }\n\n  struct NomineeBallot{\n    uint governanceCycleId;\n    bool election;\n    int24 votes;\n    uint24 positiveVotes;\n    uint24 negativeVotes;\n    uint24 totalVoters;\n    uint[] nominationsPastGovernanceCycles;\n  }\n\n  mapping(address => NomineeBallot) public nomineeBallots;\n  address[] public nomineeBallotKeys;\n  mapping (uint => BallotRecord) public ballotRecords;\n  mapping (address => uint[]) public ballotHistory;\n  mapping (address => uint) public latestGovernanceCycleParticipated;\n  uint public ballotIndex;\n  \n  uint16 public nomineesInCycle;\n  uint16 public electionNomineesInCycle;\n  uint16 public evictionNomineesInCycle;\n\n  // Floor is same as minimum vote, ceiling is 2^13, which works\n  // out to roughly 1 basis point of the total token supply.\n  uint256 public constant NominationFeeFloor = 1;\n  uint256 public constant NominationFeeCeiling = 16383;\n  uint256 public NominationFee = 1024;\n  event NominationFeeUpdated(uint256 _newFee);\n  function setNominationFee(uint feeInEXC) public onlyOwner {\n      require(feeInEXC >= NominationFeeFloor && feeInEXC <= NominationFeeCeiling);\n      NominationFee = feeInEXC;\n      emit NominationFeeUpdated(feeInEXC);\n  }\n\n  // Ceiling is current value, as any higher could lead to\n  // excessive finalization costs.  Minimum is 256, requiring\n  // large coordination to fill the pool.\n  uint16 public constant maxNomineesInCycleFloor = 256;\n  uint16 public constant maxNomineesInCycleCeiling = 1024;\n  uint16 public maxNomineesInCycle = 1024;\n  event MaxNomineesUpdated(uint16 _newMaxNominees);\n  function setMaxNominees(uint16 maxNominees) public onlyOwner {\n      require(maxNominees >= maxNomineesInCycleFloor && maxNominees <= maxNomineesInCycleCeiling);\n      maxNomineesInCycle = maxNominees;\n      emit MaxNomineesUpdated(maxNominees);\n  }\n\n  event Voted(address _voter, uint256 _ballotIndex, address _voted_for, bool _election, bool _inSupport, uint16 _votes);\n  function vote(address _voted_for, bool _election, bool _inSupport, uint16 _votes) public payable returns (uint256 index){\n    // Max supply is 150M \"ether\", so max vote is sqrt(150M)=12.2k. uint16 maxes at 65.3k. uint32 maxes at 4.2B.\n    assert(msg.value < (150000000 * 1 ether));\n    assert(_votes < 12247);\n    // Casting each vote up to 32 bytes ensures we don't get an overflow\n    require(msg.sender.balance > (500 * 1 ether), \"Voters must have at least 500 EXC.\");\n    require(currentGovernanceCycle > 0, \"Users cannot vote on the zeroth cycle.\");\n    uint128 _amount = uint128(msg.value/1 ether);\n    require(uint128(_votes)*uint128(_votes) <= _amount, \"The vote value must be at least the square of its weight.\");\n    require(nomineesInCycle < maxNomineesInCycle, \"There can be no more than 1,024 nominees in each cycle.\");\n    require(canGovern(_voted_for), \"The voted_for address must already be approved for governing.\");\n    require(canGovern(msg.sender), \"The voting address must already be approved for governing.\");\n    require(_amount >= 1, \"Vote weights cannot be less than 1.\");\n\n    BallotRecord memory record;\n    (record, ballotIndex) = populateBallotRecord(_voted_for,  _election,  _inSupport,  uint32(_amount),  _votes);\n    emit Voted(msg.sender, ballotIndex, _voted_for, _election, _inSupport, _votes);\n    return ballotIndex;\n  }\n\n  function populateBallotRecord(address _voted_for, bool _election, bool _inSupport, uint32 _amount, uint16 _votes) internal returns (BallotRecord storage record, uint256 index) {\n    require (latestGovernanceCycleParticipated[msg.sender] < currentGovernanceCycle, \"Voters can only vote once per cycle.\");\n    require(canGovern(msg.sender), \"Voting addresses must already be approved for governing.\");\n    latestGovernanceCycleParticipated[msg.sender] = currentGovernanceCycle;\n\n    index = ballotIndex+1;\n    record = ballotRecords[index];\n\n    GovernanceCycle storage governanceCycleRecord = governanceCycleRecords[currentGovernanceCycle];\n    NomineeBallot storage nomineeBallotRecord = nomineeBallots[_voted_for];\n\n    // This check shows that the vote for this nominee is the first one in this governanceCycle,\n    // and is therefore a nomination.  Nominations (i.e. first vote in cycle for a candidate)\n    // requires updates to both the nominee's ballot and the record of all nominations in cycle. \n    consensus = BlockVotingDeployable(0x0000000000000000000000000000000000000020);\n    if (nomineeBallotRecord.governanceCycleId != currentGovernanceCycle) {\n      require(_amount >= NominationFee, \"The minimum weight to nominate an address is 32, a vote cost of 1024 EXC.\");\n      if (nomineeBallotKeys.length == nomineesInCycle){\n        nomineeBallotKeys.push(_voted_for);\n      } else {\n        nomineeBallotKeys[nomineesInCycle] = _voted_for;\n      }\n\n      // Update nominee counts\n      nomineesInCycle ++;\n      if (_election == true){\n        electionNomineesInCycle ++;\n      } else {\n        evictionNomineesInCycle ++;\n      }\n\n      // Clear off any previous state as we know this is a nomination\n      nomineeBallotRecord.governanceCycleId = currentGovernanceCycle;\n      nomineeBallotRecord.election = _election;\n      nomineeBallotRecord.votes = 0;\n      nomineeBallotRecord.positiveVotes = 0;\n      nomineeBallotRecord.negativeVotes = 0;\n      nomineeBallotRecord.totalVoters = 0;\n      nomineeBallotRecord.nominationsPastGovernanceCycles.push(currentGovernanceCycle);\n\n    } else if (_election == true) {\n      // This clause is only reached for non-nominating votes, once the nomination has already\n      // updated the nominee's ballot to this cycle.  In elections, only blockmakers can vote\n      // on existing nominees.\n      require(consensus.isBlockMaker(msg.sender), \"Only current blockmakers may vote on nominees to join the pool.\");\n    }\n\n    // Verify the nominee has appropriate blockmaker status for election/eviction\n    if (_election == true) {\n      require(!consensus.isBlockMaker(_voted_for));\n    } else {\n      require(consensus.isBlockMaker(_voted_for));\n    }\n    assert(nomineeBallotRecord.governanceCycleId == currentGovernanceCycle);\n    require (governanceCycleRecord.status == GovernanceCycleStarted, \"Votes can only be made when the current cycle has been started.\");\n\n    record.governanceCycleId = currentGovernanceCycle;\n    record.voter = msg.sender;\n    record.voted_for = _voted_for;\n    record.election = _election;\n    record.inSupport = _inSupport;\n    record.amount = _amount;\n    record.votes = _votes;\n    record.timestamp = now;\n\n    // UPDATE NOMINEE BALLOT RECORDS\n    // Each BallotRecord stores _votes as a uint16, but the NomineeBallot maintains\n    // the running tally as an int24, so we convert the values before performing\n    // math.  Important that we cast to an int24 rather than an int16, as an int16\n    // only supports half the positive range that a uint16 does.  We cast to uint24\n    // for positive/negative because that's what they will be stored in, and it seems\n    // best to operate on types of the same size.\n    nomineeBallotRecord.totalVoters ++;\n    if ( _election) {\n      assert(nomineeBallotRecord.election == true);\n      if (_inSupport) {\n        nomineeBallotRecord.votes += int24(_votes);\n        nomineeBallotRecord.positiveVotes += uint24(_votes);\n      } else {\n        nomineeBallotRecord.votes -= int24(_votes);\n        nomineeBallotRecord.negativeVotes += uint24(_votes);\n      }\n    } else {\n      assert(nomineeBallotRecord.election == false);\n      if (_inSupport) {\n        nomineeBallotRecord.votes += int24(_votes);\n        nomineeBallotRecord.positiveVotes += uint24(_votes);\n      } else {\n        nomineeBallotRecord.votes -= int24(_votes);\n        nomineeBallotRecord.negativeVotes += uint24(_votes);\n      }\n    }\n\n    governanceCycleRecord.totalPayments += _amount;\n    governanceCycleRecord.totalVoters ++;\n    ballotIndex++;\n    ballotHistory[msg.sender].push(index);\n    return (record, index);\n  }\n\n////// WITHDRAWALS /////////////\n\n  //using SafeMath for uint256;\n  uint8 constant WithdrawStatusNoRecord = 0;\n  uint8 constant WithdrawStatusStarted = 1;\n  uint8 constant WithdrawStatusCompleted = 2;\n  event WithdrawStartedEvent(uint256 _withdrawIndex,\n                                address  _voter,\n                                uint256 _governanceCycleId,\n                                uint256 _ballotId);\n  event WithdrawFinalizedEvent(uint256 _withdrawIndex,\n                                address _voter,\n                                uint256 _governanceCycleId,\n                                uint256 _ballotId);\n\n  enum WithdrawStatus {\n      NoRecord,\n      Started,\n      Completed\n  }\n\n  struct WithdrawRecord {\n      uint32 amount;\n      uint8 status;\n      uint governanceCycleId;\n      address beneficiary;\n      uint256 ballotId;\n      uint256 timestamp;\n  }\n\n  mapping(uint => WithdrawRecord) public withdrawRecords;\n  mapping (address => uint[]) public withdrawHistory;\n  uint public withdrawRecordsIndex;\n\n  uint256 public constant WithdrawDelayFloor = (0 seconds);\n  uint256 public constant WithdrawDelayCeiling = AverageMonth;\n  uint256 public WithdrawDelay = (60 seconds);\n  event WithdrawDelayUpdated(uint256 delayInSeconds);\n  function setWithdrawDelay(uint delayInSeconds) public onlyOwner {\n      require(delayInSeconds >= WithdrawDelayFloor && delayInSeconds <= WithdrawDelayCeiling);\n      WithdrawDelay = delayInSeconds;\n      emit WithdrawDelayUpdated(delayInSeconds);\n  }\n\n  function startWithdraw(uint _governanceCycleId, uint _ballotId) public returns(bool ok, uint index) {\n    WithdrawRecord memory record;\n    (record, index) = populateWithdrawRecord(_governanceCycleId, _ballotId);\n    ok = true;\n    emit WithdrawStartedEvent(index, msg.sender, _governanceCycleId, _ballotId);\n    return (ok, index);\n  }\n\n  function populateWithdrawRecord(uint _governanceCycleId, uint _ballotId) internal returns (WithdrawRecord storage record, uint256 index) {\n    GovernanceCycle memory governanceCycleRecord = governanceCycleRecords[_governanceCycleId];\n    BallotRecord storage ballotRecord = ballotRecords[_ballotId];\n\n    require(governanceCycleRecord.status == GovernanceCycleCompleted, \"Ballot's cycle must be completed before beginning a withdrawal.\");\n    require(ballotRecord.voter == msg.sender, \"Voters can only begin withdrawals on their own ballots.\");\n    require(ballotRecord.governanceCycleId == _governanceCycleId, \"Ballot must be from the specified governance cycle.\");\n    require(ballotRecord.withdrawRecord == false, \"Ballot cannot already have a withdrawal record.\");\n    require(ballotRecord.withdrawRecordId == 0, \"Ballot's withdrawalRecordId must be at initial zero value.\");\n\n    index = withdrawRecordsIndex+1;\n    record = withdrawRecords[index];\n\n    ballotRecord.withdrawRecord = true;\n    ballotRecord.withdrawRecordId = index;\n\n    assert(record.status == WithdrawStatusNoRecord);\n\n    record.status = WithdrawStatusStarted;\n    record.governanceCycleId = _governanceCycleId;\n    record.ballotId = _ballotId;\n    record.beneficiary = msg.sender;\n    record.amount = governanceCycleRecord.totalPayments / governanceCycleRecord.totalVoters;\n    record.timestamp = now;\n\n    withdrawRecordsIndex ++;\n    withdrawHistory[msg.sender].push(index);\n    return (record, index);\n  }\n\n  function finalizeWithdraw(uint256 _withdrawIndex) public returns(bool success) {\n    WithdrawRecord storage record = withdrawRecords[_withdrawIndex];\n    require(canGovern(msg.sender), \"Addresses which have lost their governing privileges may not finalize any withdrawals.\");\n    require(record.status == WithdrawStatusStarted, \"Withdrawal must have been started before finalizing.\");\n    require(now >= record.timestamp + WithdrawDelay, \"Full WithdrawalDelay must have passed since starting before finalizing.\");\n    record.status = WithdrawStatusCompleted;\n    record.timestamp = now;\n\n    uint256 toSend = uint128(record.amount) * 1 ether;\n    record.beneficiary.transfer(toSend);\n\n    emit WithdrawFinalizedEvent(_withdrawIndex, record.beneficiary, record.governanceCycleId, record.ballotId);\n\n    return true;\n  }\n\n}",
  "sourcePath": "/Users/sully/sol/eximchain-governance-mechanism/contracts/WeylGovDeployable.sol",
  "compiler": {
    "name": "solc",
    "version": "0.4.24+commit.e67f0147.Emscripten.clang"
  },
  "schemaVersion": "2.0.1",
  "updatedAt": "2018-12-14T19:45:07.187Z"
}