{
  "contractName": "WeylGovV2Deployable",
  "abi": [
    {
      "constant": true,
      "inputs": [
        {
          "name": "registrant",
          "type": "address"
        }
      ],
      "name": "hasApplied",
      "outputs": [
        {
          "name": "",
          "type": "bool"
        }
      ],
      "payable": false,
      "stateMutability": "view",
      "type": "function"
    },
    {
      "constant": false,
      "inputs": [
        {
          "name": "registrant",
          "type": "address"
        }
      ],
      "name": "approveKYC",
      "outputs": [],
      "payable": false,
      "stateMutability": "nonpayable",
      "type": "function"
    },
    {
      "constant": false,
      "inputs": [
        {
          "name": "removedOwner",
          "type": "address"
        }
      ],
      "name": "removeOwner",
      "outputs": [],
      "payable": false,
      "stateMutability": "nonpayable",
      "type": "function"
    },
    {
      "constant": true,
      "inputs": [
        {
          "name": "",
          "type": "address"
        },
        {
          "name": "",
          "type": "uint256"
        }
      ],
      "name": "withdrawHistory",
      "outputs": [
        {
          "name": "",
          "type": "uint256"
        }
      ],
      "payable": false,
      "stateMutability": "view",
      "type": "function"
    },
    {
      "constant": true,
      "inputs": [
        {
          "name": "registrant",
          "type": "address"
        }
      ],
      "name": "isKYCPending",
      "outputs": [
        {
          "name": "",
          "type": "bool"
        }
      ],
      "payable": false,
      "stateMutability": "view",
      "type": "function"
    },
    {
      "constant": false,
      "inputs": [
        {
          "name": "registrant",
          "type": "address"
        }
      ],
      "name": "registerGoverning",
      "outputs": [],
      "payable": false,
      "stateMutability": "nonpayable",
      "type": "function"
    },
    {
      "constant": true,
      "inputs": [
        {
          "name": "registrant",
          "type": "address"
        }
      ],
      "name": "isKYCDenied",
      "outputs": [
        {
          "name": "",
          "type": "bool"
        }
      ],
      "payable": false,
      "stateMutability": "view",
      "type": "function"
    },
    {
      "constant": true,
      "inputs": [
        {
          "name": "maybeOwner",
          "type": "address"
        }
      ],
      "name": "isOwner",
      "outputs": [
        {
          "name": "",
          "type": "bool"
        }
      ],
      "payable": false,
      "stateMutability": "view",
      "type": "function"
    },
    {
      "constant": false,
      "inputs": [],
      "name": "appealKYC",
      "outputs": [],
      "payable": false,
      "stateMutability": "nonpayable",
      "type": "function"
    },
    {
      "constant": false,
      "inputs": [
        {
          "name": "registrant",
          "type": "address"
        }
      ],
      "name": "revokeKYC",
      "outputs": [],
      "payable": false,
      "stateMutability": "nonpayable",
      "type": "function"
    },
    {
      "constant": false,
      "inputs": [
        {
          "name": "newRegistry",
          "type": "address"
        }
      ],
      "name": "updatePersonalRegistry",
      "outputs": [],
      "payable": false,
      "stateMutability": "nonpayable",
      "type": "function"
    },
    {
      "constant": true,
      "inputs": [
        {
          "name": "",
          "type": "address"
        }
      ],
      "name": "nomineeBallots",
      "outputs": [
        {
          "name": "governanceCycleId",
          "type": "uint256"
        },
        {
          "name": "votes",
          "type": "int24"
        },
        {
          "name": "election",
          "type": "bool"
        }
      ],
      "payable": false,
      "stateMutability": "view",
      "type": "function"
    },
    {
      "constant": false,
      "inputs": [
        {
          "name": "registrant",
          "type": "address"
        }
      ],
      "name": "revokeGoverning",
      "outputs": [],
      "payable": false,
      "stateMutability": "nonpayable",
      "type": "function"
    },
    {
      "constant": false,
      "inputs": [
        {
          "name": "registrant",
          "type": "address"
        }
      ],
      "name": "registerNonGoverning",
      "outputs": [],
      "payable": false,
      "stateMutability": "nonpayable",
      "type": "function"
    },
    {
      "constant": false,
      "inputs": [
        {
          "name": "registrant",
          "type": "address"
        }
      ],
      "name": "approveGoverning",
      "outputs": [],
      "payable": false,
      "stateMutability": "nonpayable",
      "type": "function"
    },
    {
      "constant": true,
      "inputs": [
        {
          "name": "registrant",
          "type": "address"
        }
      ],
      "name": "canGovern",
      "outputs": [
        {
          "name": "",
          "type": "bool"
        }
      ],
      "payable": false,
      "stateMutability": "view",
      "type": "function"
    },
    {
      "constant": false,
      "inputs": [
        {
          "name": "registrant",
          "type": "address"
        }
      ],
      "name": "deleteKYC",
      "outputs": [],
      "payable": false,
      "stateMutability": "nonpayable",
      "type": "function"
    },
    {
      "constant": true,
      "inputs": [
        {
          "name": "",
          "type": "uint256"
        }
      ],
      "name": "governanceCycleRecords",
      "outputs": [
        {
          "name": "totalPayments",
          "type": "uint32"
        },
        {
          "name": "status",
          "type": "uint8"
        },
        {
          "name": "electionVotesElected",
          "type": "int24"
        },
        {
          "name": "evictionVotesEvicted",
          "type": "int24"
        },
        {
          "name": "totalVoters",
          "type": "uint24"
        },
        {
          "name": "elected",
          "type": "address"
        },
        {
          "name": "evicted",
          "type": "address"
        },
        {
          "name": "start",
          "type": "uint256"
        }
      ],
      "payable": false,
      "stateMutability": "view",
      "type": "function"
    },
    {
      "constant": true,
      "inputs": [
        {
          "name": "",
          "type": "uint256"
        }
      ],
      "name": "ballotRecords",
      "outputs": [
        {
          "name": "governanceCycleId",
          "type": "uint256"
        },
        {
          "name": "voter",
          "type": "address"
        },
        {
          "name": "voted_for",
          "type": "address"
        },
        {
          "name": "withdrawRecordId",
          "type": "uint256"
        },
        {
          "name": "timestamp",
          "type": "uint256"
        },
        {
          "name": "amount",
          "type": "uint32"
        },
        {
          "name": "votes",
          "type": "uint16"
        },
        {
          "name": "election",
          "type": "bool"
        },
        {
          "name": "inSupport",
          "type": "bool"
        },
        {
          "name": "withdrawRecord",
          "type": "bool"
        }
      ],
      "payable": false,
      "stateMutability": "view",
      "type": "function"
    },
    {
      "constant": false,
      "inputs": [
        {
          "name": "newOwner",
          "type": "address"
        }
      ],
      "name": "addOwner",
      "outputs": [],
      "payable": false,
      "stateMutability": "nonpayable",
      "type": "function"
    },
    {
      "constant": true,
      "inputs": [],
      "name": "nomineesInCycle",
      "outputs": [
        {
          "name": "",
          "type": "uint16"
        }
      ],
      "payable": false,
      "stateMutability": "view",
      "type": "function"
    },
    {
      "constant": true,
      "inputs": [
        {
          "name": "registrant",
          "type": "address"
        }
      ],
      "name": "getRegistration",
      "outputs": [
        {
          "name": "",
          "type": "uint8"
        },
        {
          "name": "",
          "type": "address"
        }
      ],
      "payable": false,
      "stateMutability": "view",
      "type": "function"
    },
    {
      "constant": true,
      "inputs": [],
      "name": "currentGovernanceCycle",
      "outputs": [
        {
          "name": "",
          "type": "uint256"
        }
      ],
      "payable": false,
      "stateMutability": "view",
      "type": "function"
    },
    {
      "constant": true,
      "inputs": [],
      "name": "numOwners",
      "outputs": [
        {
          "name": "",
          "type": "uint256"
        }
      ],
      "payable": false,
      "stateMutability": "view",
      "type": "function"
    },
    {
      "constant": true,
      "inputs": [
        {
          "name": "",
          "type": "uint256"
        }
      ],
      "name": "withdrawRecords",
      "outputs": [
        {
          "name": "amount",
          "type": "uint32"
        },
        {
          "name": "status",
          "type": "uint8"
        },
        {
          "name": "governanceCycleId",
          "type": "uint256"
        },
        {
          "name": "beneficiary",
          "type": "address"
        },
        {
          "name": "ballotId",
          "type": "uint256"
        },
        {
          "name": "timestamp",
          "type": "uint256"
        }
      ],
      "payable": false,
      "stateMutability": "view",
      "type": "function"
    },
    {
      "constant": true,
      "inputs": [
        {
          "name": "",
          "type": "address"
        },
        {
          "name": "",
          "type": "uint256"
        }
      ],
      "name": "ballotHistory",
      "outputs": [
        {
          "name": "",
          "type": "uint256"
        }
      ],
      "payable": false,
      "stateMutability": "view",
      "type": "function"
    },
    {
      "constant": false,
      "inputs": [],
      "name": "applyKYC",
      "outputs": [],
      "payable": false,
      "stateMutability": "nonpayable",
      "type": "function"
    },
    {
      "constant": true,
      "inputs": [
        {
          "name": "",
          "type": "address"
        }
      ],
      "name": "latestGovernanceCycleParticipated",
      "outputs": [
        {
          "name": "",
          "type": "uint256"
        }
      ],
      "payable": false,
      "stateMutability": "view",
      "type": "function"
    },
    {
      "constant": false,
      "inputs": [
        {
          "name": "registrant",
          "type": "address"
        }
      ],
      "name": "denyKYC",
      "outputs": [],
      "payable": false,
      "stateMutability": "nonpayable",
      "type": "function"
    },
    {
      "constant": true,
      "inputs": [],
      "name": "WithdrawDelay",
      "outputs": [
        {
          "name": "",
          "type": "uint256"
        }
      ],
      "payable": false,
      "stateMutability": "view",
      "type": "function"
    },
    {
      "constant": true,
      "inputs": [],
      "name": "maxNomineesInCycle",
      "outputs": [
        {
          "name": "",
          "type": "uint16"
        }
      ],
      "payable": false,
      "stateMutability": "view",
      "type": "function"
    },
    {
      "constant": true,
      "inputs": [],
      "name": "numRegistered",
      "outputs": [
        {
          "name": "",
          "type": "uint256"
        }
      ],
      "payable": false,
      "stateMutability": "view",
      "type": "function"
    },
    {
      "constant": true,
      "inputs": [],
      "name": "ballotIndex",
      "outputs": [
        {
          "name": "",
          "type": "uint256"
        }
      ],
      "payable": false,
      "stateMutability": "view",
      "type": "function"
    },
    {
      "constant": true,
      "inputs": [
        {
          "name": "",
          "type": "uint256"
        }
      ],
      "name": "nomineeBallotKeys",
      "outputs": [
        {
          "name": "",
          "type": "address"
        }
      ],
      "payable": false,
      "stateMutability": "view",
      "type": "function"
    },
    {
      "constant": true,
      "inputs": [],
      "name": "withdrawRecordsIndex",
      "outputs": [
        {
          "name": "",
          "type": "uint256"
        }
      ],
      "payable": false,
      "stateMutability": "view",
      "type": "function"
    },
    {
      "constant": false,
      "inputs": [
        {
          "name": "registrant",
          "type": "address"
        }
      ],
      "name": "processKYC",
      "outputs": [],
      "payable": false,
      "stateMutability": "nonpayable",
      "type": "function"
    },
    {
      "constant": true,
      "inputs": [
        {
          "name": "registrant",
          "type": "address"
        }
      ],
      "name": "isKYCApproved",
      "outputs": [
        {
          "name": "",
          "type": "bool"
        }
      ],
      "payable": false,
      "stateMutability": "view",
      "type": "function"
    },
    {
      "constant": true,
      "inputs": [],
      "name": "GovernanceCycleDelay",
      "outputs": [
        {
          "name": "",
          "type": "uint256"
        }
      ],
      "payable": false,
      "stateMutability": "view",
      "type": "function"
    },
    {
      "anonymous": false,
      "inputs": [
        {
          "indexed": false,
          "name": "cycleId",
          "type": "uint256"
        }
      ],
      "name": "CycleStarted",
      "type": "event"
    },
    {
      "anonymous": false,
      "inputs": [
        {
          "indexed": false,
          "name": "cycleId",
          "type": "uint256"
        }
      ],
      "name": "CycleFinalized",
      "type": "event"
    },
    {
      "anonymous": false,
      "inputs": [
        {
          "indexed": false,
          "name": "newMaker",
          "type": "address"
        },
        {
          "indexed": false,
          "name": "cycleId",
          "type": "uint256"
        }
      ],
      "name": "AddedBlockMaker",
      "type": "event"
    },
    {
      "anonymous": false,
      "inputs": [
        {
          "indexed": false,
          "name": "oldMaker",
          "type": "address"
        },
        {
          "indexed": false,
          "name": "cycleId",
          "type": "uint256"
        }
      ],
      "name": "RemovedBlockMaker",
      "type": "event"
    },
    {
      "anonymous": false,
      "inputs": [
        {
          "indexed": false,
          "name": "_voter",
          "type": "address"
        },
        {
          "indexed": false,
          "name": "_ballotIndex",
          "type": "uint256"
        },
        {
          "indexed": false,
          "name": "_voted_for",
          "type": "address"
        },
        {
          "indexed": false,
          "name": "_election",
          "type": "bool"
        },
        {
          "indexed": false,
          "name": "_inSupport",
          "type": "bool"
        },
        {
          "indexed": false,
          "name": "_votes",
          "type": "uint16"
        }
      ],
      "name": "Voted",
      "type": "event"
    },
    {
      "anonymous": false,
      "inputs": [
        {
          "indexed": false,
          "name": "_withdrawIndex",
          "type": "uint256"
        },
        {
          "indexed": false,
          "name": "_voter",
          "type": "address"
        },
        {
          "indexed": false,
          "name": "_governanceCycleId",
          "type": "uint256"
        },
        {
          "indexed": false,
          "name": "_ballotId",
          "type": "uint256"
        }
      ],
      "name": "WithdrawStartedEvent",
      "type": "event"
    },
    {
      "anonymous": false,
      "inputs": [
        {
          "indexed": false,
          "name": "_withdrawIndex",
          "type": "uint256"
        },
        {
          "indexed": false,
          "name": "_voter",
          "type": "address"
        },
        {
          "indexed": false,
          "name": "_governanceCycleId",
          "type": "uint256"
        },
        {
          "indexed": false,
          "name": "_ballotId",
          "type": "uint256"
        }
      ],
      "name": "WithdrawFinalizedEvent",
      "type": "event"
    },
    {
      "anonymous": false,
      "inputs": [
        {
          "indexed": true,
          "name": "approvingOwner",
          "type": "address"
        },
        {
          "indexed": true,
          "name": "newOwner",
          "type": "address"
        }
      ],
      "name": "OwnerAdded",
      "type": "event"
    },
    {
      "anonymous": false,
      "inputs": [
        {
          "indexed": true,
          "name": "removingOwner",
          "type": "address"
        },
        {
          "indexed": true,
          "name": "removedOwner",
          "type": "address"
        }
      ],
      "name": "OwnerRemoved",
      "type": "event"
    },
    {
      "anonymous": false,
      "inputs": [
        {
          "indexed": true,
          "name": "updatingEntry",
          "type": "address"
        },
        {
          "indexed": true,
          "name": "newRegistry",
          "type": "address"
        }
      ],
      "name": "UpdatedPersonalRegistry",
      "type": "event"
    },
    {
      "anonymous": false,
      "inputs": [
        {
          "indexed": true,
          "name": "newEntry",
          "type": "address"
        }
      ],
      "name": "AppliedKYC",
      "type": "event"
    },
    {
      "anonymous": false,
      "inputs": [
        {
          "indexed": true,
          "name": "removingOwner",
          "type": "address"
        },
        {
          "indexed": true,
          "name": "removedEntry",
          "type": "address"
        },
        {
          "indexed": false,
          "name": "finalKYC",
          "type": "uint8"
        },
        {
          "indexed": false,
          "name": "finalPersonalRegistry",
          "type": "address"
        }
      ],
      "name": "DeletedKYC",
      "type": "event"
    },
    {
      "anonymous": false,
      "inputs": [
        {
          "indexed": true,
          "name": "approvingOwner",
          "type": "address"
        },
        {
          "indexed": true,
          "name": "pendingEntry",
          "type": "address"
        }
      ],
      "name": "ProcessedKYC",
      "type": "event"
    },
    {
      "anonymous": false,
      "inputs": [
        {
          "indexed": true,
          "name": "approvingOwner",
          "type": "address"
        },
        {
          "indexed": true,
          "name": "approvedEntry",
          "type": "address"
        }
      ],
      "name": "ApprovedKYC",
      "type": "event"
    },
    {
      "anonymous": false,
      "inputs": [
        {
          "indexed": true,
          "name": "revertingOwner",
          "type": "address"
        },
        {
          "indexed": true,
          "name": "entry",
          "type": "address"
        }
      ],
      "name": "RevokedKYC",
      "type": "event"
    },
    {
      "anonymous": false,
      "inputs": [
        {
          "indexed": true,
          "name": "denyingOwner",
          "type": "address"
        },
        {
          "indexed": true,
          "name": "deniedEntry",
          "type": "address"
        }
      ],
      "name": "DeniedKYC",
      "type": "event"
    },
    {
      "anonymous": false,
      "inputs": [
        {
          "indexed": true,
          "name": "appealingRegistrant",
          "type": "address"
        }
      ],
      "name": "AppealedKYC",
      "type": "event"
    },
    {
      "anonymous": false,
      "inputs": [
        {
          "indexed": true,
          "name": "approvingOwner",
          "type": "address"
        },
        {
          "indexed": true,
          "name": "voter",
          "type": "address"
        }
      ],
      "name": "ApprovedGoverning",
      "type": "event"
    },
    {
      "anonymous": false,
      "inputs": [
        {
          "indexed": true,
          "name": "revokingOwner",
          "type": "address"
        },
        {
          "indexed": true,
          "name": "nonvoter",
          "type": "address"
        }
      ],
      "name": "RevokedGoverning",
      "type": "event"
    },
    {
      "anonymous": false,
      "inputs": [
        {
          "indexed": true,
          "name": "registeringOwner",
          "type": "address"
        },
        {
          "indexed": true,
          "name": "voter",
          "type": "address"
        }
      ],
      "name": "RegisteredGoverning",
      "type": "event"
    },
    {
      "anonymous": false,
      "inputs": [
        {
          "indexed": true,
          "name": "registeringOwner",
          "type": "address"
        },
        {
          "indexed": true,
          "name": "nonvoter",
          "type": "address"
        }
      ],
      "name": "RegisteredNonGoverning",
      "type": "event"
    },
    {
      "constant": false,
      "inputs": [],
      "name": "newGovernanceCycle",
      "outputs": [],
      "payable": false,
      "stateMutability": "nonpayable",
      "type": "function"
    },
    {
      "constant": true,
      "inputs": [],
      "name": "findWinners",
      "outputs": [
        {
          "name": "",
          "type": "address"
        },
        {
          "name": "",
          "type": "int24"
        },
        {
          "name": "",
          "type": "address"
        },
        {
          "name": "",
          "type": "int24"
        }
      ],
      "payable": false,
      "stateMutability": "view",
      "type": "function"
    },
    {
      "constant": false,
      "inputs": [],
      "name": "finalizeGovernanceCycle",
      "outputs": [],
      "payable": false,
      "stateMutability": "nonpayable",
      "type": "function"
    },
    {
      "constant": false,
      "inputs": [
        {
          "name": "_voted_for",
          "type": "address"
        },
        {
          "name": "_election",
          "type": "bool"
        },
        {
          "name": "_inSupport",
          "type": "bool"
        },
        {
          "name": "_votes",
          "type": "uint16"
        }
      ],
      "name": "vote",
      "outputs": [
        {
          "name": "index",
          "type": "uint256"
        }
      ],
      "payable": true,
      "stateMutability": "payable",
      "type": "function"
    },
    {
      "constant": false,
      "inputs": [
        {
          "name": "_governanceCycleId",
          "type": "uint256"
        },
        {
          "name": "_ballotId",
          "type": "uint256"
        }
      ],
      "name": "startWithdraw",
      "outputs": [
        {
          "name": "ok",
          "type": "bool"
        },
        {
          "name": "index",
          "type": "uint256"
        }
      ],
      "payable": false,
      "stateMutability": "nonpayable",
      "type": "function"
    },
    {
      "constant": false,
      "inputs": [
        {
          "name": "_withdrawIndex",
          "type": "uint256"
        }
      ],
      "name": "finalizeWithdraw",
      "outputs": [
        {
          "name": "success",
          "type": "bool"
        }
      ],
      "payable": false,
      "stateMutability": "nonpayable",
      "type": "function"
    }
  ],
  "bytecode": "0x608060405260028054600160a060020a031916602017905534801561002357600080fd5b50612bd0806100336000396000f3006080604052600436106102195763ffffffff7c01000000000000000000000000000000000000000000000000000000006000350416630928d152811461021e57806309413a511461024a5780630e27324d1461026b578063173825d91461028e57806319796a35146102af57806323a6f9ce146102e55780632532d2f714610306578063294266611461032757806329f21a22146103485780632eca7b9b1461035d5780632f54bf6e146103825780633015f3f2146103a357806335201f1f146103d957806339ba645b146103ee5780633fea48471461040f578063443803781461043057806344ca204814610476578063467eacc2146104975780634ba97285146104b857806353aa4307146104d95780635ae0c590146104fa5780635f05b0921461051b5780635ff8b778146105975780636d92d0e8146105e75780637065cb481461066857806370eb753414610689578063719be07e146106b557806372731062146106ca57806380a317f11461071e57806387ab18e1146107335780639147fe701461074857806392b97897146107a45780639809d16f146107c85780639d7faff9146107dd578063b80ebf41146107fe578063ba9bead71461081f578063c136797b14610834578063c96e562714610849578063d1c469f81461085e578063d474c05114610873578063db5d3e21146108a7578063e2896dcc146108bc578063e77db232146108dd578063f9820ba41461081f575b600080fd5b34801561022a57600080fd5b506102366004356108fe565b604080519115158252519081900360200190f35b34801561025657600080fd5b50610236600160a060020a0360043516610a32565b34801561027757600080fd5b5061028c600160a060020a0360043516610a64565b005b34801561029a57600080fd5b5061028c600160a060020a0360043516610ae5565b3480156102bb57600080fd5b506102d3600160a060020a0360043516602435610b94565b60408051918252519081900360200190f35b3480156102f157600080fd5b50610236600160a060020a0360043516610bc4565b34801561031257600080fd5b5061028c600160a060020a0360043516610bf7565b34801561033357600080fd5b50610236600160a060020a0360043516610cb6565b34801561035457600080fd5b5061028c610cbf565b6102d3600160a060020a03600435166024351515604435151561ffff60643516610d00565b34801561038e57600080fd5b50610236600160a060020a0360043516610f22565b3480156103af57600080fd5b506103be600435602435610f40565b60408051921515835260208301919091528051918290030190f35b3480156103e557600080fd5b5061028c61100d565b3480156103fa57600080fd5b5061028c600160a060020a0360043516611063565b34801561041b57600080fd5b5061028c600160a060020a03600435166111ee565b34801561043c57600080fd5b50610451600160a060020a0360043516611270565b60408051938452600292830b90920b6020840152151582820152519081900360600190f35b34801561048257600080fd5b5061028c600160a060020a0360043516611299565b3480156104a357600080fd5b5061028c600160a060020a0360043516611442565b3480156104c457600080fd5b5061028c600160a060020a0360043516611501565b3480156104e557600080fd5b50610236600160a060020a036004351661159f565b34801561050657600080fd5b5061028c600160a060020a03600435166115a8565b34801561052757600080fd5b5061053360043561169a565b6040805163ffffffff909916895260ff9097166020890152600295860b860b8888015293850b90940b606087015262ffffff9091166080860152600160a060020a0390811660a08601529190911660c084015260e083015251908190036101000190f35b3480156105a357600080fd5b506105ac611714565b60408051600160a060020a039586168152600294850b850b60208201529290941682850152820b90910b606082015290519081900360800190f35b3480156105f357600080fd5b506105ff600435611918565b604080519a8b52600160a060020a03998a1660208c015297909816898801526060890195909552608088019390935263ffffffff90911660a087015261ffff1660c0860152151560e0850152151561010084015290151561012083015251908190036101400190f35b34801561067457600080fd5b5061028c600160a060020a036004351661199a565b34801561069557600080fd5b5061069e611a44565b6040805161ffff9092168252519081900360200190f35b3480156106c157600080fd5b5061028c611a4e565b3480156106d657600080fd5b506106eb600160a060020a0360043516611b95565b604051808360058111156106fb57fe5b60ff168152600160a060020a039092166020830152506040805191829003019150f35b34801561072a57600080fd5b506102d3611bc0565b34801561073f57600080fd5b506102d3611bc6565b34801561075457600080fd5b50610760600435611bcc565b6040805163ffffffff909716875260ff909516602087015285850193909352600160a060020a039091166060850152608084015260a0830152519081900360c00190f35b3480156107b057600080fd5b506102d3600160a060020a0360043516602435611c16565b3480156107d457600080fd5b5061028c611c31565b3480156107e957600080fd5b506102d3600160a060020a0360043516611d06565b34801561080a57600080fd5b5061028c600160a060020a0360043516611d18565b34801561082b57600080fd5b506102d3611d9c565b34801561084057600080fd5b5061069e611da1565b34801561085557600080fd5b506102d3611da7565b34801561086a57600080fd5b506102d3611dad565b34801561087f57600080fd5b5061088b600435611db3565b60408051600160a060020a039092168252519081900360200190f35b3480156108b357600080fd5b506102d3611ddb565b3480156108c857600080fd5b5061028c600160a060020a0360043516611de1565b3480156108e957600080fd5b50610236600160a060020a0360043516611e7f565b6000818152600e60205260408120816109163361159f565b151561092157600080fd5b8154640100000000900460ff1660011461093a57600080fd5b6004820154603c0142101561094e57600080fd5b50805464ff00000000191664020000000017808255426004830155600282015460405163ffffffff909216670de0b6b3a7640000026fffffffffffffffffffffffffffffffff1691600160a060020a03909116906108fc8315029083906000818181858888f193505050501580156109ca573d6000803e3d6000fd5b5060028201546001830154600384015460408051888152600160a060020a039094166020850152838101929092526060830152517f20f80d7554c0059da4016e5bfac043eac3e87522178aaa4dda5718488f6d90249181900360800190a15060019392505050565b600080600160a060020a03831660009081526003602052604090205460ff166005811115610a5c57fe5b141592915050565b3360009081526020819052604090205460ff161515610a8257600080fd5b80610a8c81610bc4565b1515610a9757600080fd5b600160a060020a038216600081815260036020526040808220805460ff191660041790555133917f4c5fd5c97b69932f3ca5075b2ac770cc50a01cebdddda2632e4d1504cc8f34aa91a35050565b3360009081526020819052604090205460ff161515610b0357600080fd5b33600160a060020a0382161415610b1957600080fd5b600160a060020a03811660009081526020819052604090205460ff16151560011415610b9157600160a060020a038116600081815260208190526040808220805460ff19169055600180546000190190555133917fe594d081b4382713733fe631966432c9cea5199afb2db5c3c1931f9f9300367991a35b50565b600f60205281600052604060002081815481101515610baf57fe5b90600052602060002001600091509150505481565b600060025b600160a060020a03831660009081526003602052604090205460ff166005811115610bf057fe5b1492915050565b3360009081526020819052604090205460ff161515610c1557600080fd5b600160a060020a03811660009081526003602052604081205460ff166005811115610c3c57fe5b14610c4657600080fd5b600160a060020a038116600081815260036020526040808220805474ffffffffffffffffffffffffffffffffffffffff001960ff199091166005171690556004805460010190555133917f9a8e1a756666c0aad4d1c4aa6fe0ac9127e902b2072ebd94fd84f3bf04d6084491a350565b60006003610bc9565b610cc7611ebe565b505060065460408051918252517fc8a0332abe200b5e7ff117e01b27b1ea7e989a7152ad8690ca1e0f0cb1157c3f9181900360200190a1565b600080610d0b612ad0565b6a7c13bc4b2c133c560000003410610d1f57fe5b612fd761ffff851610610d2e57fe5b681b1ae4d6e2ef500000333111610d4457600080fd5b600654600010610d5357600080fd5b670de0b6b3a7640000340491506fffffffffffffffffffffffffffffffff80831661ffff861680029091161115610d8957600080fd5b600d5461040061ffff90911610610d9f57600080fd5b610da88761159f565b1515610db357600080fd5b610dbc3361159f565b1515610dc757600080fd5b60016fffffffffffffffffffffffffffffffff83161015610de757600080fd5b610df4878787858861209a565b6040805161014081018252835481526001840154600160a060020a0390811660208084019190915260028601548216838501526003860154606080850191909152600487015460808086019190915260059097015463ffffffff811660a08087019190915261ffff6401000000008304811660c08089019190915260ff660100000000000085048116151560e08a01526701000000000000008504811615156101008a0152680100000000000000009094049093161515610120880152600c899055875133815294850198909852938f16838701528d1515918301919091528b1515968201969096529389169084015290519093507f94ad41938a3c52b325ba6a84d3cd5c11d47eb54e2cd4ae15d1a3ed3f7ff9fd61929181900390910190a15050600c5495945050505050565b600160a060020a031660009081526020819052604090205460ff1690565b600080610f4b612b24565b610f558585612640565b6040805160c081018252835463ffffffff81168252640100000000900460ff16602080830191909152600180860154838501526002860154600160a060020a0316606080850191909152600387015460808086019190915260049097015460a0850152845186815233938101939093528285018c905282018a9052925192975092955093507ff57c1eceda30f0de0f213802e00eaf59e535b98f34c625b9f37dd346f0896fd6929181900390910190a1509250929050565b61101633610cb6565b151561102157600080fd5b33600081815260036020526040808220805460ff19166002179055517f03f8f1b800636dc73de5bc6d9bc12c21e42cf5889826ba764961324712cc82199190a2565b3360009081526020819052604090205460ff16151561108157600080fd5b61108a81611e7f565b151561109557600080fd5b600160a060020a038181166000818152600360208181526040808420805460ff1916909317909255600254825160e060020a63e814d1c702815260048101959095529151919094169363e814d1c793602480820194929392918390030190829087803b15801561110457600080fd5b505af1158015611118573d6000803e3d6000fd5b505050506040513d602081101561112e57600080fd5b5051156111b557600254604080517f284d163c000000000000000000000000000000000000000000000000000000008152600160a060020a0384811660048301529151919092169163284d163c91602480830192600092919082900301818387803b15801561119c57600080fd5b505af11580156111b0573d6000803e3d6000fd5b505050505b604051600160a060020a0382169033907f19998e7976aa23e4b62233267eb2ad1f5a6e9d0c14ba4e624be9bbb483fa8a8290600090a350565b336111f881610a32565b151561120357600080fd5b33600081815260036020526040808220805474ffffffffffffffffffffffffffffffffffffffff001916610100600160a060020a0388169081029190911790915590519092917f0c7d294a01bb33ad30c5979847ba131140e32c0394abfdac3e9bbf8d900c8fa391a35050565b60076020526000908152604090208054600190910154600281900b906301000000900460ff1683565b3360009081526020819052604090205460ff1615156112b757600080fd5b6005600160a060020a03821660009081526003602052604090205460ff1660058111156112e057fe5b146112ea57600080fd5b600160a060020a038181166000818152600360209081526040808320805460ff19166004908117909155600254825160e060020a63e814d1c7028152918201959095529051939094169363e814d1c79360248083019491928390030190829087803b15801561135857600080fd5b505af115801561136c573d6000803e3d6000fd5b505050506040513d602081101561138257600080fd5b50511561140957600254604080517f284d163c000000000000000000000000000000000000000000000000000000008152600160a060020a0384811660048301529151919092169163284d163c91602480830192600092919082900301818387803b1580156113f057600080fd5b505af1158015611404573d6000803e3d6000fd5b505050505b604051600160a060020a0382169033907f4bbe248838e4bfb5253c39dffb5fd53815cf695db8df596e565fc5d01b4ff7b790600090a350565b3360009081526020819052604090205460ff16151561146057600080fd5b600160a060020a03811660009081526003602052604081205460ff16600581111561148757fe5b1461149157600080fd5b600160a060020a0381166000818152600360205260408082208054600460ff19909116811774ffffffffffffffffffffffffffffffffffffffff001916909155805460010190555133917f75a492aa4c35cc7585db1281931e916eec9e08997dfc41114df961caa86a5ee791a350565b3360009081526020819052604090205460ff16151561151f57600080fd5b6004600160a060020a03821660009081526003602052604090205460ff16600581111561154857fe5b1461155257600080fd5b600160a060020a038116600081815260036020526040808220805460ff191660051790555133917f045c83e610879a5bf652498fa70300eec471b598071c4c5ced21e12567e6118391a350565b60006005610bc9565b33600090815260208190526040812054819060ff1615156115c857600080fd5b826115d281610a32565b15156115dd57600080fd5b600160a060020a03841660009081526003602052604090205460ff16600581111561160457fe5b600160a060020a03808616600081815260036020908152604091829020805474ffffffffffffffffffffffffffffffffffffffffff19811690915560048054600019019055825160ff8716815261010090910490941690840181905281519497509550909233927f65d97d2aa59303cb2310c4c9e837ce7f74106fb762e141468687807530d8d9d592908290030190a350505050565b60056020526000908152604090208054600280830154600384015460049094015463ffffffff841694640100000000850460ff1694650100000000008104850b94680100000000000000008204900b936b01000000000000000000000090910462ffffff1692600160a060020a0391821692919091169088565b600080808080808080805b600d5461ffff9081169082161015611909576007600060088361ffff1681548110151561174857fe5b6000918252602080832090910154600160a060020a0316835282019290925260400190206001015460ff63010000009091041615611843578360020b6007600060088461ffff1681548110151561179b57fe5b6000918252602080832090910154600160a060020a03168352820192909252604001902060010154600290810b900b131561183e576008805461ffff83169081106117e257fe5b600091825260208220015460088054600160a060020a0390921697506007929161ffff851690811061181057fe5b6000918252602080832090910154600160a060020a0316835282019290925260400190206001015460020b93505b611901565b8160020b6007600060088461ffff1681548110151561185e57fe5b6000918252602080832090910154600160a060020a03168352820192909252604001902060010154600290810b900b1315611901576008805461ffff83169081106118a557fe5b600091825260208220015460088054600160a060020a0390921695506007929161ffff85169081106118d357fe5b6000918252602080832090910154600160a060020a0316835282019290925260400190206001015460020b91505b60010161171f565b50929791965094509092509050565b6009602052600090815260409020805460018201546002830154600384015460048501546005909501549394600160a060020a03938416949290931692909163ffffffff81169061ffff6401000000008204169060ff66010000000000008204811691670100000000000000810482169168010000000000000000909104168a565b3360009081526020819052604090205460ff1615156119b857600080fd5b600160a060020a03811660009081526020819052604090205460ff161580156119e95750600160a060020a03811615155b15610b9157600160a060020a038116600081815260208190526040808220805460ff191660019081179091558054810190555133917fc82bdbbf677a2462f2a7e22e4ba9abd209496b69cd7b868b3b1d28f76e09a40a91a350565b600d5461ffff1681565b60065460009081526005602052604081208054909190819081908190640100000000900460ff16600114611a8157600080fd5b6004850154603c01421015611a9557600080fd5b611a9d611714565b6002898101805473ffffffffffffffffffffffffffffffffffffffff19908116600160a060020a03888116919091179092558b5460038d01805490921692861692909217905567ffffff000000000019166501000000000085830b62ffffff90811691909102919091176affffff00000000000000001916680100000000000000009284900b91909116919091021764ff000000001916640200000000178955929650945092509050611b4e6128d5565b600d805461ffff1916905560065460408051918252517f6fbfbccdd0d107860c9bccfa723d97eba4f37886edeb01e7a438b1e0fe44e0569181900360200190a15050505050565b600160a060020a0380821660009081526003602052604090205460ff81169161010090910416915091565b60065481565b60015481565b600e602052600090815260409020805460018201546002830154600384015460049094015463ffffffff84169464010000000090940460ff1693600160a060020a03909216919086565b600a60205281600052604060002081815481101515610baf57fe5b3360009081526003602052604081205460ff166005811115611c4f57fe5b14611c5957600080fd5b6040805180820190915280600181526000602091820181905233815260039091526040902081518154829060ff19166001836005811115611c9657fe5b0217905550602091909101518154600160a060020a039091166101000274ffffffffffffffffffffffffffffffffffffffff001990911617905560048054600101905560405133907f9fa0a0ab27bb3532e0a5807b1221eff2865fbf4e0653b099c79060b53f5efa7590600090a2565b600b6020526000908152604090205481565b3360009081526020819052604090205460ff161515611d3657600080fd5b80611d4081610bc4565b1515611d4b57600080fd5b600160a060020a0382166000818152600360208190526040808320805460ff19169092179091555133917f25b52ce1cec4a0b58546e3364f909bc3a67330feb1052c53ed71bdc0ce7ca0e691a35050565b603c81565b61040081565b60045481565b600c5481565b6008805482908110611dc157fe5b600091825260209091200154600160a060020a0316905081565b60105481565b3360009081526020819052604090205460ff161515611dff57600080fd5b6001600160a060020a03821660009081526003602052604090205460ff166005811115611e2857fe5b14611e3257600080fd5b600160a060020a038116600081815260036020526040808220805460ff191660021790555133917f11a2d12075444130457ce8d40659df4f4bfd065e5cf035403e3f0b0f97bf828e91a350565b60006004600160a060020a03831660009081526003602052604090205460ff166005811115611eaa57fe5b1480611eb857506005610bc9565b92915050565b600080611ec9612b59565b6006546000908152600560209081526040808320815161012081018352815463ffffffff81168252640100000000810460ff1682860152650100000000008104600290810b810b810b83860152680100000000000000008204810b810b900b60608301526b010000000000000000000000900462ffffff1660808201526001820180548451818702810187019095528085529194929360a0860193909290830182828015611f9657602002820191906000526020600020905b815481526020019060010190808311611f82575b50505091835250506002820154600160a060020a0390811660208301526003830154166040820152600490910154606090910152600654909250158015611fe25750602082015160ff16155b1561201757506006546000908152600560205260409020805464ff000000001916640200000000178155426004820155612094565b602082015160ff1660021461202b57600080fd5b610100820151603c0142101561204057600080fd5b60065460010160008181526005602052604090208054909550909350640100000000900460ff161561207157600080fd5b835464ff0000000019166401000000001784554260048501556006805460010190555b50509091565b600654336000908152600b60205260408120549091829182918291106120bf57600080fd5b6120c83361159f565b15156120d357600080fd5b5050600654336000908152600b60209081526040808320849055600c546001018084526009835281842085855260058452828520600160a060020a038e16865260079094529190932080549196509294509092146122515761040063ffffffff8716101561214057600080fd5b600d5460085461ffff90911614156121af57600880546001810182556000919091527ff3f7a9fe364faab93b216da50a3214154f22a0a2b415b23a84c8169e8b636ee301805473ffffffffffffffffffffffffffffffffffffffff1916600160a060020a038b161790556121f4565b600d54600880548b9261ffff169081106121c557fe5b9060005260206000200160006101000a815481600160a060020a030219169083600160a060020a031602179055505b600d805461ffff198116600161ffff928316810190921617909155600680548355828201805463ff000000191663010000008c1515021762ffffff19169055546002830180549283018155600090815260209020909101556122e3565b600188151514156122e3576002546040805160e060020a63e814d1c70281523360048201529051600160a060020a039092169163e814d1c7916024808201926020929091908290030181600087803b1580156122ac57600080fd5b505af11580156122c0573d6000803e3d6000fd5b505050506040513d60208110156122d657600080fd5b505115156122e357600080fd5b6001881515141561237b576002546040805160e060020a63e814d1c7028152600160a060020a038c811660048301529151919092169163e814d1c79160248083019260209291908290030181600087803b15801561234057600080fd5b505af1158015612354573d6000803e3d6000fd5b505050506040513d602081101561236a57600080fd5b50511561237657600080fd5b612404565b6002546040805160e060020a63e814d1c7028152600160a060020a038c811660048301529151919092169163e814d1c79160248083019260209291908290030181600087803b1580156123cd57600080fd5b505af11580156123e1573d6000803e3d6000fd5b505050506040513d60208110156123f757600080fd5b5051151561240457600080fd5b60065481541461241357600080fd5b8154640100000000900460ff1660011461242c57600080fd5b60065484556001840180543373ffffffffffffffffffffffffffffffffffffffff1991821617909155600285018054909116600160a060020a038b1617905560058401805466ff000000000000191666010000000000008a158015919091029190911767ff0000000000000019166701000000000000008a1515021763ffffffff191663ffffffff89161765ffff00000000191664010000000061ffff8916021790915542600486015561254d576001818101546301000000900460ff161515146124f357fe5b861561252157600181018054600281810b61ffff891601900b62ffffff1662ffffff19909116179055612548565b60018101805461ffff8716600282810b91909103900b62ffffff1662ffffff199091161790555b6125b8565b60018101546301000000900460ff161561256357fe5b861561259157600181018054600281810b61ffff891601900b62ffffff1662ffffff199091161790556125b8565b60018101805461ffff8716600282810b91909103900b62ffffff1662ffffff199091161790555b815462ffffff6b01000000000000000000000063ffffffff8084168a011663ffffffff1990931692909217828104821660019081019092169092026dffffff000000000000000000000019909216919091178355600c805482019055336000908152600a60209081526040822080549384018155825290200183905550509550959350505050565b60008061264b612b59565b6000858152600560209081526040808320815161012081018352815463ffffffff81168252640100000000810460ff1682860152650100000000008104600290810b810b810b83860152680100000000000000008204810b810b900b60608301526b010000000000000000000000900462ffffff1660808201526001820180548451818702810187019095528085529194929360a086019390929083018282801561271557602002820191906000526020600020905b815481526020019060010190808311612701575b5050509183525050600282810154600160a060020a0390811660208085019190915260038501549091166040808501919091526004909401546060909301929092526000898152600983529290922090830151929450925060ff9091161461277c57600080fd5b6001810154600160a060020a0316331461279557600080fd5b805486146127a257600080fd5b600581015468010000000000000000900460ff16156127c057600080fd5b6003810154156127cf57600080fd5b6010546001016000818152600e6020526040902060058301805468ff0000000000000000191668010000000000000000179055600383018290558054909550909350640100000000900460ff161561282357fe5b835464ff000000001916640100000000178455600184018690556003840185905560028401805473ffffffffffffffffffffffffffffffffffffffff1916331790556080820151825162ffffff9091169063ffffffff1681151561288357fe5b855463ffffffff191691900463ffffffff161784555050426004830155601080546001908101909155336000908152600f60209081526040822080549384018155825290200181905590939092509050565b6006546000908152600560205260408120548190640100000000900460ff1660021461290057600080fd5b505060065460009081526005602052604090206002810154600390910154600160a060020a03918216911681156129f757600254604080517f72a571fc000000000000000000000000000000000000000000000000000000008152600160a060020a038581166004830152915191909216916372a571fc91602480830192600092919082900301818387803b15801561299857600080fd5b505af11580156129ac573d6000803e3d6000fd5b505060065460408051600160a060020a0387168152602081019290925280517f548d80f2f20f03e1d25db3a25d1f42723afcd95a876c6be9745a1d9c79287979945091829003019150a15b600160a060020a03811615612acc57600254604080517f284d163c000000000000000000000000000000000000000000000000000000008152600160a060020a0384811660048301529151919092169163284d163c91602480830192600092919082900301818387803b158015612a6d57600080fd5b505af1158015612a81573d6000803e3d6000fd5b505060065460408051600160a060020a0386168152602081019290925280517f464684ccc15aa295f664037cf727e3c268cdca0671227d4cdc45bac1b20d5bb4945091829003019150a15b5050565b6040805161014081018252600080825260208201819052918101829052606081018290526080810182905260a0810182905260c0810182905260e08101829052610100810182905261012081019190915290565b6040805160c081018252600080825260208201819052918101829052606081018290526080810182905260a081019190915290565b604080516101208101825260008082526020820181905291810182905260608082018390526080820183905260a082015260c0810182905260e08101829052610100810191909152905600a165627a7a72305820bb9f728fa408db17e5da6bc690ab2e33674983951400e6a3a2a6ecf811d26ea50029",
  "source": "pragma solidity ^0.4.10;\n\nimport \"./EximchainIdentityRegistryDeployable.sol\";\n\n/**\n  # VOTE INTEGER SIZE DECISIONS\n\n  This governance contract has a number of optimizations built specifically for \n  the Exim blockchain.  These optimizations are based on:\n    1. Quadratic voting system where voting v costs v**2 tokens\n    2. A total token supply for 150M tokens\n    3. Minimum requirement of 500 tokens to cast vote\n  This leads to:\n\n  - MAX SINGLE VOTE (uint16): Maximum vote is sqrt(150M)=12,247. Each \n    BallotRecord stores the vote as a uint16, which handles up to 65,536.\n\n  - MAX TOTAL VOTE (int24): Atleast one person needs to be nominated by a voter, that voter \n    must hold 500 tokens and casts 32 votes (for 1024 tokens)for the nomination leaving: \n    150M - 500 - 1024 = 149998476 tokens in circulation. Each voter thereafter must also hold 500 tokens \n    and can cast a minimum of 1 vote with 1 token.  and  so at a max supply of 149998476, the max number \n    of votes any candidate can receive in an election is 32 + 149998476/501=299k votes, either positive or \n    negative. The nominee and governance ballots store this in the smallest \n    possible int, int24 (maxes at +/-8.35M).\n\n  - MAX AMOUNT (uint32): If somebody held every token and used every one to vote, \n    the amount for that vote would be 150M.  The BallotRecord and NomineeBallot \n    store the amount as a uint32, the smallest uint which can hold 150M (maxes at 4.29B).\n\n */\n\ncontract WeylGovV2Deployable is EximchainIdentityRegistryDeployable {\n\n  ////////////////////////////////\n  // GOVERNANCE CYCLES\n  ////////////////////////////////\n\n  uint8 constant GovernanceCycleNoRecord = 0;\n  uint8 constant GovernanceCycleStarted = 1;\n  uint8 constant GovernanceCycleCompleted = 2;\n  uint256 public constant GovernanceCycleDelay = (60 seconds);\n\n  enum GovernanceCycleStatus {\n      NoRecord,\n      Started,\n      Completed\n  }\n\n  struct GovernanceCycle{\n    uint32 totalPayments;\n    uint8 status;\n    int24 electionVotesElected;\n    int24 evictionVotesEvicted;\n    uint24 totalVoters;\n    uint[] ballotIds;\n    address elected;\n    address evicted;\n    uint256 start;\n  }\n\n  mapping(uint => GovernanceCycle) public governanceCycleRecords;\n  uint public currentGovernanceCycle;\n\n  event CycleStarted(uint256 cycleId);\n  event CycleFinalized(uint256 cycleId);\n  function newGovernanceCycle() public {\n    populateGovernanceCycleRecord();\n    emit CycleStarted(currentGovernanceCycle);\n  }\n\n  function findWinners() public constant returns (address, int24, address, int24) {\n    address electionWinner = address(0);\n    int24 electionWinnerCount = 0;\n    address evictionWinner = address(0);\n    int24 evictionWinnerCount = 0;\n    for (uint16 i = 0; i < nomineesInCycle; i++){\n      if (nomineeBallots[nomineeBallotKeys[i]].election){\n        if (nomineeBallots[nomineeBallotKeys[i]].votes > electionWinnerCount){\n          electionWinner = nomineeBallotKeys[i];\n          electionWinnerCount = nomineeBallots[nomineeBallotKeys[i]].votes;\n        }\n      } else {\n        if (nomineeBallots[nomineeBallotKeys[i]].votes > evictionWinnerCount){\n          evictionWinner = nomineeBallotKeys[i];\n          evictionWinnerCount = nomineeBallots[nomineeBallotKeys[i]].votes;\n        }\n      }\n    }\n    return (electionWinner, electionWinnerCount, evictionWinner, evictionWinnerCount);\n  }\n\n  function finalizeGovernanceCycle() public {\n    GovernanceCycle storage latestGovernanceCycle = governanceCycleRecords[currentGovernanceCycle];\n    require(latestGovernanceCycle.status==GovernanceCycleStarted);\n    require(now >= latestGovernanceCycle.start + GovernanceCycleDelay);\n    address electionWinner;\n    address evictionWinner;\n    int24 electionWinnerCount;\n    int24 evictionWinnerCount;\n    (electionWinner, electionWinnerCount, evictionWinner, evictionWinnerCount) = findWinners();\n    latestGovernanceCycle.elected = electionWinner;\n    latestGovernanceCycle.electionVotesElected = electionWinnerCount;\n    latestGovernanceCycle.evicted = evictionWinner;\n    latestGovernanceCycle.evictionVotesEvicted = evictionWinnerCount;\n    latestGovernanceCycle.status = GovernanceCycleCompleted;\n    executeGovernance();\n    nomineesInCycle = 0;\n    emit CycleFinalized(currentGovernanceCycle);\n  }\n\n  event AddedBlockMaker(address newMaker, uint256 cycleId);\n  event RemovedBlockMaker(address oldMaker, uint256 cycleId);\n  function executeGovernance() private {\n    require(governanceCycleRecords[currentGovernanceCycle].status == GovernanceCycleCompleted);\n    address electedBlockMaker = governanceCycleRecords[currentGovernanceCycle].elected;\n    address evictedBlockMaker = governanceCycleRecords[currentGovernanceCycle].evicted;\n    if (electedBlockMaker != address(0)){\n      consensus.addBlockMaker(electedBlockMaker);\n      emit AddedBlockMaker(electedBlockMaker, currentGovernanceCycle);\n    }\n    if (evictedBlockMaker != address(0)){\n      consensus.removeBlockMaker(evictedBlockMaker);\n      emit RemovedBlockMaker(evictedBlockMaker, currentGovernanceCycle);\n    }\n  }\n\n  function populateGovernanceCycleRecord() internal returns (GovernanceCycle storage record, uint256 index) {\n    GovernanceCycle memory latestGovernanceCycle = governanceCycleRecords[currentGovernanceCycle];\n    if (currentGovernanceCycle == 0 && latestGovernanceCycle.status == GovernanceCycleNoRecord){\n      GovernanceCycle storage burnGovernanceCycle = governanceCycleRecords[currentGovernanceCycle];\n      burnGovernanceCycle.status = GovernanceCycleCompleted;\n      burnGovernanceCycle.start = now;\n      return (record, index);\n    } else {\n      require(latestGovernanceCycle.status == GovernanceCycleCompleted);\n      require(now >= latestGovernanceCycle.start + GovernanceCycleDelay);\n      index = currentGovernanceCycle+1;\n      record = governanceCycleRecords[index];\n      require(record.status == GovernanceCycleNoRecord);\n      record.status = GovernanceCycleStarted;\n      record.start = now;\n      currentGovernanceCycle ++;\n      return (record, index);\n    }\n\n  }\n\n  ////////////////////////////////\n  // BALLOTS\n  ////////////////////////////////\n\n  struct BallotRecord {\n        uint governanceCycleId;\n        address voter;\n        address voted_for;\n        uint256 withdrawRecordId;\n        uint256 timestamp;\n        uint32 amount;\n        uint16 votes;\n        bool election;\n        bool inSupport;\n        bool withdrawRecord;\n  }\n\n  struct NomineeBallot{\n    uint governanceCycleId;\n    int24 votes;\n    bool election;\n    uint[] nominationsPastGovernanceCycles;\n  }\n\n  mapping(address => NomineeBallot) public nomineeBallots;\n  address[] public nomineeBallotKeys;\n  mapping (uint => BallotRecord) public ballotRecords;\n  mapping (address => uint[]) public ballotHistory;\n  mapping (address => uint) public latestGovernanceCycleParticipated;\n  uint public ballotIndex;\n  uint16 public constant maxNomineesInCycle = 1024;\n  uint16 public nomineesInCycle;\n  uint256 constant NominationFee = 1024;\n\n  event Voted(address _voter, uint256 _ballotIndex, address _voted_for, bool _election, bool _inSupport, uint16 _votes);\n  function vote(address _voted_for, bool _election, bool _inSupport, uint16 _votes) public payable returns (uint256 index){\n    // Max supply is 150M \"ether\", so max vote is sqrt(150M)=12.2k. uint16 maxes at 65.3k. uint32 maxes at 4.2B.\n    assert(msg.value < (150000000 * 1 ether));\n    assert(_votes < 12247);\n    // Casting each vote up to 32 bytes ensures we don't get an overflow\n    require(msg.sender.balance > (500 * 1 ether));\n    require(currentGovernanceCycle > 0);\n    uint128 _amount = uint128(msg.value/1 ether);\n    require(uint128(_votes)*uint128(_votes) <= _amount);\n    require(nomineesInCycle < maxNomineesInCycle);\n    require(canGovern(_voted_for));\n    require(canGovern(msg.sender));\n    require(_amount >= 1);\n\n    BallotRecord memory record;\n    (record, ballotIndex) = populateBallotRecord(_voted_for,  _election,  _inSupport,  uint32(_amount),  _votes);\n    emit Voted(msg.sender, ballotIndex, _voted_for, _election, _inSupport, _votes);\n    return ballotIndex;\n  }\n\n  function populateBallotRecord(address _voted_for, bool _election, bool _inSupport, uint32 _amount, uint16 _votes) internal returns (BallotRecord storage record, uint256 index) {\n    // TEST SWTICH: Disabling below line allows multiple votes in one cycle from one voter.\n    require (latestGovernanceCycleParticipated[msg.sender] < currentGovernanceCycle);\n    require(canGovern(msg.sender));\n    latestGovernanceCycleParticipated[msg.sender] = currentGovernanceCycle;\n\n    index = ballotIndex+1;\n    record = ballotRecords[index];\n\n    GovernanceCycle storage governanceCycleRecord = governanceCycleRecords[currentGovernanceCycle];\n    NomineeBallot storage nomineeBallotRecord = nomineeBallots[_voted_for];\n\n    // This check shows that the vote for this nominee is the first one in this governanceCycle,\n    // and is therefore a nomination.  Nominations (i.e. first vote in cycle for a candidate)\n    // requires updates to both the nominee's ballot and the record of all nominations in cycle. \n    if (nomineeBallotRecord.governanceCycleId != currentGovernanceCycle) {\n      require(_amount >= NominationFee);\n      if (nomineeBallotKeys.length == nomineesInCycle){\n        nomineeBallotKeys.push(_voted_for);\n      } else {\n        nomineeBallotKeys[nomineesInCycle] = _voted_for;\n      }\n      nomineesInCycle ++;\n      nomineeBallotRecord.governanceCycleId = currentGovernanceCycle;\n      nomineeBallotRecord.election = _election;\n      nomineeBallotRecord.votes = 0;\n      nomineeBallotRecord.nominationsPastGovernanceCycles.push(currentGovernanceCycle);\n    } else if (_election == true) {\n      // This clause is only reached for non-nominating votes, once the nomination has already\n      // updated the nominee's ballot to this cycle.  In elections, only blockmakers can vote\n      // on existing nominees.\n      require(consensus.isBlockMaker(msg.sender));\n    }\n\n    // Verify the nominee has appropriate blockmaker status for election/eviction\n    if (_election == true) {\n      require(!consensus.isBlockMaker(_voted_for));\n    } else {\n      require(consensus.isBlockMaker(_voted_for));\n    }\n    require (nomineeBallotRecord.governanceCycleId == currentGovernanceCycle);\n    require (governanceCycleRecord.status == GovernanceCycleStarted);\n\n    record.governanceCycleId = currentGovernanceCycle;\n    record.voter = msg.sender;\n    record.voted_for = _voted_for;\n    record.election = _election;\n    record.inSupport = _inSupport;\n    record.amount = _amount;\n    record.votes = _votes;\n    record.timestamp = now;\n\n    // UPDATE NOMINEE BALLOT RECORDS\n    // Each BallotRecord stores _votes as a uint16, but the NomineeBallot maintains\n    // the running tally as an int24, so we convert the values before performing\n    // math.  Important that we cast to an int24 rather than an int16, as an int16\n    // only supports half the positive range that a uint16 does.\n    if ( _election) {\n      assert(nomineeBallotRecord.election == true);\n      if (_inSupport) {\n        nomineeBallotRecord.votes += int24(_votes);\n      } else {\n        nomineeBallotRecord.votes -= int24(_votes);\n      }\n    } else {\n      assert(nomineeBallotRecord.election == false);\n      if (_inSupport) {\n        nomineeBallotRecord.votes += int24(_votes);\n      } else {\n        nomineeBallotRecord.votes -= int24(_votes);\n      }\n    }\n\n    governanceCycleRecord.totalPayments += _amount;\n    governanceCycleRecord.totalVoters += 1;\n    ballotIndex++;\n    ballotHistory[msg.sender].push(index);\n    return (record, index);\n  }\n\n  ////////////////////////////////\n  // WITHDRAWALS\n  ////////////////////////////////\n\n  //using SafeMath for uint256;\n  uint8 constant WithdrawStatusNoRecord = 0;\n  uint8 constant WithdrawStatusStarted = 1;\n  uint8 constant WithdrawStatusCompleted = 2;\n  uint256 public constant WithdrawDelay = (60 seconds);\n  event WithdrawStartedEvent(uint256 _withdrawIndex,\n                                address  _voter,\n                                uint256 _governanceCycleId,\n                                uint256 _ballotId);\n  event WithdrawFinalizedEvent(uint256 _withdrawIndex,\n                                address _voter,\n                                uint256 _governanceCycleId,\n                                uint256 _ballotId);\n\n  enum WithdrawStatus {\n      NoRecord,\n      Started,\n      Completed\n  }\n\n  struct WithdrawRecord {\n      uint32 amount;\n      uint8 status;\n      uint governanceCycleId;\n      address beneficiary;\n      uint256 ballotId;\n      uint256 timestamp;\n  }\n\n  mapping(uint => WithdrawRecord) public withdrawRecords;\n  mapping (address => uint[]) public withdrawHistory;\n  uint public withdrawRecordsIndex;\n\n  function startWithdraw(uint _governanceCycleId, uint _ballotId) public returns(bool ok, uint index) {\n    WithdrawRecord memory record;\n    (record, index) = populateWithdrawRecord(_governanceCycleId, _ballotId);\n    ok = true;\n    emit WithdrawStartedEvent(index, msg.sender, _governanceCycleId, _ballotId);\n    return (ok, index);\n  }\n\n  function populateWithdrawRecord(uint _governanceCycleId, uint _ballotId) internal returns (WithdrawRecord storage record, uint256 index) {\n    GovernanceCycle memory governanceCycleRecord = governanceCycleRecords[_governanceCycleId];\n    BallotRecord storage ballotRecord = ballotRecords[_ballotId];\n\n    require(governanceCycleRecord.status == GovernanceCycleCompleted);\n    require(ballotRecord.voter == msg.sender);\n    require(ballotRecord.governanceCycleId == _governanceCycleId);\n    require(ballotRecord.withdrawRecord == false);\n    require(ballotRecord.withdrawRecordId == 0);\n\n    index = withdrawRecordsIndex+1;\n    record = withdrawRecords[index];\n\n    ballotRecord.withdrawRecord = true;\n    ballotRecord.withdrawRecordId = index;\n\n    assert(record.status == WithdrawStatusNoRecord);\n\n    record.status = WithdrawStatusStarted;\n    record.governanceCycleId = _governanceCycleId;\n    record.ballotId = _ballotId;\n    record.beneficiary = msg.sender;\n    record.amount = governanceCycleRecord.totalPayments / governanceCycleRecord.totalVoters;\n    record.timestamp = now;\n\n    withdrawRecordsIndex ++;\n    withdrawHistory[msg.sender].push(index);\n    return (record, index);\n  }\n\n  function finalizeWithdraw(uint256 _withdrawIndex) public returns(bool success) {\n    WithdrawRecord storage record = withdrawRecords[_withdrawIndex];\n    require(canGovern(msg.sender));\n    require(record.status == WithdrawStatusStarted);\n    require(now >= record.timestamp + WithdrawDelay);\n    record.status = WithdrawStatusCompleted;\n    record.timestamp = now;\n\n    uint256 toSend = uint128(record.amount) * 1 ether;\n    record.beneficiary.transfer(toSend);\n\n    emit WithdrawFinalizedEvent(_withdrawIndex, record.beneficiary, record.governanceCycleId, record.ballotId);\n\n    return true;\n  }\n\n}",
  "sourcePath": "/Users/sully/sol/eximchain-governance-mechanism/contracts/WeylGovV2Deployable.sol",
  "compiler": {
    "name": "solc",
    "version": "0.4.24+commit.e67f0147.Emscripten.clang"
  },
  "schemaVersion": "2.0.1",
  "updatedAt": "2018-12-11T16:24:31.726Z"
}